:020000040800F2
:10000000B855002045010008F11B0008C91A000876
:10001000ED1B000885020008C91D00080000000053
:10002000000000000000000000000000F91B0008B4
:100030003D03000800000000F51B0008FD1B000840
:100040005F0100085F0100085F0100085F01000810
:100050005F0100085F0100085F0100085F01000800
:100060005F0100085F0100085F0100085F010008F0
:100070005F0100085F0100085F0100085F010008E0
:100080005F0100085F0100085F0100085F010008D0
:10009000BD1D00085F0100085F0100085F01000846
:1000A0005F0100085F0100085F0100085F010008B0
:1000B0005F0100085F0100085F0100085F010008A0
:1000C0005F0100085F0100085F0100085F01000890
:1000D0005F0100085F0100085F0100085F01000880
:1000E0005F0100085F0100085F0100085F01000870
:1000F0005F0100085F0100085F0100085F01000860
:100100005F0100085F0100085F0100085F0100084F
:100110005F0100085F0100085F0100085F0100083F
:100120005F0100085F0100085F0100085F0100082F
:10013000DFF80CD000F06EF800480047F9300008F6
:10014000B85500200648804706480047FEE7FEE70E
:10015000FEE7FEE7FEE7FEE7FEE7FEE7FEE7FEE777
:10016000011C00083101000840EA01039B0703D08D
:1001700009E008C9121F08C0042AFAD203E011F8E6
:10018000013B00F8013B521EF9D27047D2B201E0A8
:1001900000F8012B491EFBD270470022F6E710B58C
:1001A00013460A4604461946FFF7F0FF204610BDE5
:1001B0002DE9F05F0546002092469B46884606469C
:1001C000814640241BE0284641464746224600F02F
:1001D00048F853465A46C01A914110D31146184662
:1001E000224600F02FF82D1A67EB01084F462246F1
:1001F0000120002100F026F817EB00094E41201ED7
:10020000A4F10104DFDC484631462A464346BDE8F6
:10021000F09F00001CB50948009009480190054670
:10022000009C06E0E06840F0010394E8070098476E
:100230001034AC42F6D3FFF77FFF0000985E000851
:10024000B85E0008202A04DB203A00FA02F1002000
:1002500070479140C2F1200320FA03F31943904004
:100260007047202A04DB203A21FA02F0002170476F
:1002700021FA02F3D040C2F120029140084319460E
:1002800070470000FEE7000010B58AB0002006901D
:10029000CDE90400CDE90200CDE90000012040F2E3
:1002A0002C14CDE907000E20C2F200040990694623
:1002B000204600F019F9204600F056FC20460221A5
:1002C00000F0A8F80AB010BD70B588B00C46002147
:1002D000CDE9020140F22C10C2F20000CDE9041178
:1002E000CDE9062100F010FA80B943F6B04640F29D
:1002F0002C15CFF6FF76C2F2000500BF013605D2FD
:10030000284600BF00F000FA0028F7D040F22C1079
:10031000C2F2000000F0F8F948B140F22C10C2F22D
:10032000000002A901AB224600F08CF810B10220B7
:1003300008B070BD002008B070BD0000704700001C
:10034000EFF3108072B600BFFEE7000070B542F216
:100350000C060446C4F2020600F062FE3168C907CA
:100360001CD13068800644BF202030603068C00651
:1003700007D43069C00704D1306840075CBF002053
:1003800070BD3068C00640F2A010C2F2000021D457
:1003900000213268520725D42AE000BFC4B10546C7
:1003A000601C10D13068C007DBD03068C0071CBFAC
:1003B00030685FEAC070D4D03068C007F2D1D0E7AF
:1003C0003068C007CDD000F02BFE401BA042F7D90B
:1003D000032070BDC16941F00201C1611021326882
:1003E000520705D5C26941F0040142F00102C26121
:1003F0003269D20702D10120316070BDC26942F07A
:100400000402C261306920F00100306101203160D6
:1004100070BD000090F82020013A012A08D8006839
:1004200000F114020020136819431160704700BFE7
:1004300000F1240201204FF4802113681943116058
:100440007047000010B590F820E0D0F800C0AEF181
:10045000010EBEF1010FDCF808E011D81EF0E05FDC
:1004600018D0CEF301640120A04018608B68DBB186
:10047000D1F804E0C86840EACE0040EA030E17E075
:1004800000F1240301204FF480211A681143196000
:1004900010BD00BF00F1240301204FF400111A68C1
:1004A0001143196010BD00BF0868CB6843EA405E85
:1004B0000CF5C07000EB0413240140F804E00C6953
:1004C000184640F8044F097D012903D1016841F421
:1004D0008071016050680121D86010689860002028
:1004E0001A681143196010BD026890F82030013B72
:1004F000012B29D8B0B5D2F80002012340F0010049
:10050000C2F80002D1F814E0CC690EF01F0003FA23
:1005100000F0D2F81C326FEA000C8343012CC2F8C1
:100520001C3217D06CBBD2F80C3203EA0C03C2F8B1
:100530000C32CB688C8844EA034302EBCE04C4F847
:1005400040320B4615E000BF416A41F48021416210
:1005500001207047D2F80C320343C2F80C320B680A
:100560008C8844EA034302EBCE04C4F8403201F124
:100570000C038D681B8802EBCE0443EA0543C4F8E4
:100580004432D2F804328C6943EA0005D1F810E015
:10059000096A002C08BF03EA0C05C2F80452D2F81D
:1005A0001432BEF1000F43EA000408BF03EA0C0452
:1005B0000129C2F8144204D1D2F81C120843C2F82F
:1005C0001C02D2F8000220F00100C2F80002002054
:1005D000B0BD000070470000B0B590F82040013C6D
:1005E000012C7DD8D0F800C000290CBFDCF80C40ED
:1005F000DCF81040A4077DD00CF5D8754FEA011C3B
:1006000055F80C4014F00404946055F80CE005EB28
:10061000011C19BF4FEADE0555604FEA5E551560B3
:10062000DCF80050E64605F00205D5605EF8044FA0
:1006300024075ABFDEF8004004F00F0408241461B8
:10064000DEF800400029C4F307249461DEF800506E
:100650004FEA15455561DCF808201A70026802EB74
:100660000112D2F8B8214FEA12225A70026802EB46
:100670000112D2F8B8214FEA12429A70026802EBD6
:100680000112D2F8B8214FEA1262DA70026802EB66
:100690000112D2F8BC211A71026802EB0112D2F8E1
:1006A000BC214FEA12225A71026802EB0112D2F801
:1006B000BC214FEA12429A71026802EB0112D2F891
:1006C000BC214FEA1262DA7100680CBF00F10C0124
:1006D00000F11001002020220B681A430A60B0BD0F
:1006E00000F1240101204FF480220B681A430A60B4
:1006F000B0BD00BF00F1240101204FF400120B68CF
:100700001A430A60B0BD000090F820100139012999
:1007100084BF002070470068816882688068C1F3E8
:100720008061C2F3C0621144C0F300700844704796
:100730002DE9F04F81B0044600684669D0F8049076
:100740008768D0F80CB0D0F810A0D0F81880F10766
:1007500004D1002530071DD424E000BFF90710D0D4
:100760000121BA07816009D4780700F1AF8038070A
:1007700000F1B680204600F025FA02E0204600F0A5
:1007800023FA0025F80500F18780F80300F1B18015
:10079000300707D51BF0100004D0206845F4007521
:1007A0001021C160700708D51BF0080005D0206833
:1007B0000821C160204600F0ADF9B00706D52068D9
:1007C000C068800702D0204600F0A6F9700607D561
:1007D0001AF0100004D0206845F4806510210161F2
:1007E000B00608D51AF0080005D02068082101617C
:1007F000204600F0B3F9F00606D5206800698007AE
:1008000002D0204600F0ACF9B00308D519F0100072
:1008100005D0206810214160204600F0A3F9F003C4
:1008200008D519F0080005D020680821416020464D
:1008300000F0D4F9300440F19B805FEA497040F148
:10084000948006F4807008EA102028435FEA8871DB
:10085000014648BF41F00201B20558BF01465FEAB8
:1008600048700D4648BF45F00405700558BF0D4659
:10087000300540F17A8018F0700000F07680103872
:10088000000905286CD8DFE800F003655D6159694F
:1008900045F0080564E000BF20684FF48071BA0598
:1008A00081600BD4780515D438051DD4204600F09E
:1008B0008DF9F8037FF56CAF1BE000BF204600F018
:1008C00087F9F8037FF564AF13E000BF4FF40065CC
:1008D00058E700BF05F50055F8037FF559AF08E06C
:1008E0004FF480554EE700BF05F58045F8037FF5CE
:1008F0004FAF20684FF48031BA0381600AD4780387
:1009000010D4380314D4204600F064F930073FF5C2
:1009100041AF47E7204600F05FF930073FF53AAFB7
:1009200040E700BF05F5004530073FF533AF39E735
:1009300005F5803530073FF52DAF33E745F08005ED
:100940000EE000BF45F020050AE000BF45F040057D
:1009500006E000BF45F0100502E000BF45F48075D9
:100960002068816921F07001816120680421416063
:1009700055B1606A40EA05012046616201B0BDE8F8
:10098000F04FFFF727BE00BF01B0BDE8F08F0000B9
:10099000002804BF01207047B0B5044690F820003D
:1009A00010B9204600F06EF82068016841F001019E
:1009B000016000F035FB054620684168C90705D194
:1009C00000F02EFB401B0B28F6D310E0016821F04D
:1009D0000201016000F024FB054600BF2068416869
:1009E00089070DD500F01CFB401B0B28F6D3606A6D
:1009F000052140F400306062012084F82010B0BD71
:100A0000217E0268012922F0800208BF8032026044
:100A1000617E0268012922F0400208BF4032026074
:100A2000A17E0268012922F0200208BF2032026064
:100A3000E17E0268012922F0100218BF1032026024
:100A4000217F0268012922F0080208BF08320260F3
:100A5000617F0268012922F0040208BF04320260AB
:100A6000D4E901C2D4E9033561691A432A43114329
:100A7000ACF101021143C16100200121606284F8E0
:100A80002010B0BDB0B586B040F60004C4F2010439
:100A90000068A4F52442002190420591CDE903119C
:100AA000029101D006B0B0BD41F21800C4F20200BC
:100AB000426802AD42F000724260426802F0007289
:100AC0000192019A026842F004020260006800F09C
:100AD0000400019001984FF40060CDE902010491F7
:100AE0002046294600F0A2F94FF4805002900220DF
:100AF0000390032005902046294600F097F9142022
:100B00000021002200F00CFB142000F0F7FA06B0E0
:100B1000B0BD00007047000080B59AB069464B1D1B
:100B200013AA0021FFF758FD10B11AB080BD00BF15
:100B3000139817990090A0F2DF7001288DF8041027
:100B4000F3D800F06DFA024642F29430C2F200008F
:100B5000694601F0FFFE1AB080BD0000704700003A
:100B60007047000070470000B0B5044690F82000C0
:100B700001281DD1022084F820002068016821F09E
:100B80000101016000F04CFA054600BF2068406892
:100B9000C00713D000F044FA401B0B28F6D3606A5C
:100BA00040F400306062052084F820000120B0BDD0
:100BB000606A40F4002060620120B0BD00206062E5
:100BC000B0BD000070470000704700007047000093
:100BD0007047000070470000704700007047000039
:100BE0002DE9F04381B040F2A015C2F200052A7E43
:100BF000012A03D1022001B0BDE8F08304460120A0
:100C0000266828764CF250308846FFF79FFB022E6C
:100C10001CD100284ED1002042F21004E861C4F239
:100C20000204206840F004002060206840F040008A
:100C300020604CF25030FFF789FB216821F004015D
:100C400021600021297601B0BDE8F08390BB4FF010
:100C5000FF30C8F80000D4E9027007EBC0208742DB
:100C600028D242F21006C4F202064FF0000900BF7B
:100C7000C5F81C90306840F0020030607760306842
:100C800040F0400030604CF25030FFF75FFB3168BD
:100C900021F00201316098B9D4E9020107F500673B
:100CA00000EBC1208742E3D300200021297601B068
:100CB000BDE8F08301200021297601B0BDE8F08372
:100CC000C8F800700021297601B0BDE8F08300006B
:100CD00042F21001C4F20201086840F080020020D4
:100CE0000A6070472DE9F04381B040F2A017C2F2CC
:100CF000000716463A7E012A04D1022001B0BDE861
:100D0000F08300BF0546012038764CF250300C4687
:100D10009946FFF71BFB28B10021397601B0BDE8E9
:100D2000F08300BF42F210080020C4F20208F8610C
:100D3000D8F8000040F00100C8F800004CF2503034
:100D40002680FFF703FBD8F80010002821F00101EE
:100D5000C8F8001018BF0046DED1012DDCD00020FD
:100D6000F861D8F80000310C40F00100C8F800002C
:100D70004CF250306180FFF7E9FAD8F800100028F3
:100D800021F00101C8F80010C6D1E81E10F1030FD0
:100D90004FF00000C0D8F861D8F8000040F0010022
:100DA000C8F800004CF25030A4F80490FFF7CEFAD7
:100DB000D8F80010002821F00101C8F80010ABD1CC
:100DC0000020F861D8F800004FEA194140F0010016
:100DD000C8F800004CF25030E180FFF7B7FAD8F8BD
:100DE0000010002821F00101C8F8001018BF0046CB
:100DF0000021397601B0BDE8F083000042F2040022
:100E0000C4F20200C16809065CBF0020704740F2CE
:100E10002311C4F26751016048F6AB11CCF6EF51D3
:100E20000160C068C0B2C009704700002DE9F04FF2
:100E300082B00E68002E00F0E980A0F1804241F6F9
:100E4000004540F20043A2F58432C4F201050624B5
:100E5000C4F201034FEAB227A84208BF05244FF0AD
:100E6000000E4FF001080F254FF0000A4FF0000B65
:100E7000052F38BF4FEAB224009408E00E680AF14B
:100E8000010A36FA0AF20EF1040E00F0BF8008FAE9
:100E90000AFC16EA0C09F1D04E684FF6FF72C1F257
:100EA0001002964212DC122E56D8DFE806F0350BFF
:100EB0004D49555555555555555555555555554506
:100EC000510000BFD1F80CB046E000BF4FF6FF72F2
:100ED000C1F2210296420FDC0022C1F211029642B9
:100EE0001AD00022C1F21202964215D00022C1F29D
:100EF0002102964210D02FE00022C1F22202964237
:100F00000AD00022C1F23102964205D00022C1F27D
:100F10003202964220D100BF8A684AB1012A14BF2A
:100F2000C0F814C0C0F810C04FF0080B14E000BFA8
:100F30004FF0040B10E000BFCA6802F1040B0BE095
:100F40004FF0000B08E000BFCA6802F1080B03E095
:100F5000CA6802F10C0B00BF02467446B9F5807FE7
:100F600024BF0432203C166805FA04F726EA070776
:100F70000BFA04F637431760CA79D2067FF57EAFC5
:100F800041F21807C4F202073A684FF6084542F0EA
:100F900001023A603A68CFF6FF7502F00102019251
:100FA000019A2AF003021A440F2457590EF00C0636
:100FB000B440A743009C04FA06F6374357514E68E5
:100FC00040F20C44F2029A6854BF22EA090242EA53
:100FD0000902C4F201049A602268B70254BF22EAEF
:100FE000090242EA090222605A68B70354BF22EAA2
:100FF000090242EA09025A600F251A68F70354BF32
:1010000022EA090242EA09021A6037E702B0BDE8A3
:10101000F08F0000002A08BF09040161704700003A
:1010200044F2B450C2F200000068704740F204007D
:1010300044F2B451C2F20000C2F2000100780A6822
:10104000104408607047000080B542F20000C4F20E
:101050000200016841F010010160032000F08CF8EB
:101060000F2000F005F800F027F8002080BD0000F8
:1010700070B540F20406C2F2000640F20C0132786C
:10108000C2F200014FF47A730968B3FBF2F204462E
:10109000B1FBF2F1084600F085FB0F2C4FF0010583
:1010A00008D838B94FF0FF3021460022002500F063
:1010B00037F87460284670BD82B041F21800C4F25F
:1010C00002000168022241F001010160016801F0A3
:1010D000010101910199416841F0805141604068EE
:1010E00000F08050009000980420C4F201000168D4
:1010F00062F31A61016002B070470000002848BF27
:10110000704700F01F01012202FA01F11C2202EADD
:10111000D0004EF20012CEF2000281507047000063
:1011200010B54EF60C5CCEF2000CDCF80030C3F3C8
:10113000022E8EF00704042C28BF0424BEF1030302
:101140004FF0FF3E0EFA04F438BF0023A14399404C
:101150000EFA03F39A43114300F00F0200F16043CB
:101160000901043A03F564436244002848BF02F1D0
:101170000C03197010BD00004EF60C51CEF20001A8
:101180000A684FF6FF031A4060F30A2242F08060BB
:1011900040F0FD7008607047002804BF01207047D0
:1011A0002DE9F04381B042F20008C4F2020804467F
:1011B000D8F800000D4600F0070081420CD9D8F89D
:1011C000000020F007002843C8F80000D8F800000D
:1011D00000F00700A8426CD1206841F204098107A1
:1011E000C4F2020917D5410705D5D9F8001041F41A
:1011F000E061C9F80010010705D5D9F8001041F4E5
:101200006051C9F80010D9F80010A26821F0F0016F
:101210001143C9F80010C00742D1D8F8000000F00F
:10122000070085420CD2D8F8000020F007002843C0
:10123000C8F80000D8F8000000F00700A84238D134
:101240002068410707D5D9F80010E26821F4E06171
:101250001143C9F80010000708D5D9F8000021692A
:1012600020F4605040EAC100C9F80000D9F800201D
:1012700002F00C00082841F20020C0F27A004DD1A3
:1012800045F62E63C2F38341C0F60003595CD203D6
:1012900038D440F60010C0F23D0048433EE000BFA5
:1012A000606859F8041C022808D0012826D1890357
:1012B00006D4012001B0BDE8F08300BF8901F8D554
:1012C000D9F8001021F003010843C9F80000FFF726
:1012D000A7FE064641F28837D9F80000616800F0A1
:1012E0000C00B0EB810F98D0FFF79AFE801BB8423C
:1012F000F2D9032001B0BDE8F08300BF8907D8D53B
:10130000DEE700BFD9F8002045F62C63C2F3404267
:10131000C0F600039A5C4843B0FBF2F0D9F8001025
:1013200045F61462C1F30311C0F60002515C40F2AD
:101330000C0220FA01F140F20800C2F2000000683D
:10134000C2F200021160FFF793FE002001B0BDE879
:10135000F083000040F20C0041F20401C2F20000F0
:10136000C4F202010068096845F62462C1F3022153
:10137000C0F60002515CC8407047000040F20C000B
:1013800041F20401C2F20000C4F2020100680968DF
:1013900045F62462C1F3C221C0F60002515CC84088
:1013A00070470000002804BF012070472DE9F0417C
:1013B00082B00446007841F20006C007C4F202067B
:1013C0000CD0706800F00C00042840F08180306878
:1013D000800303D56068002800F0468120788007EC
:1013E0001BD5706810F00C0F09D0706800F00C006D
:1013F000082840F087807068C00300F1838030685F
:10140000800703D52069012840F02E81306861698A
:1014100020F0F80040EAC10030602078000713D4C3
:10142000207840072CD4E569002D00F01881706801
:1014300000F00C00082840F0A780012D40F0048146
:10144000012002B0BDE8F081A069002800F084808E
:101450000020C4F242200121C0F88014FFF7E0FD13
:10146000054600BF706A800700F1B280FFF7D8FD23
:10147000401B0228F6D9032002B0BDE8F08100BF6E
:10148000F0695FEAC00808D4F06940F08050F0616C
:10149000F06900F080500090009847F20007C4F215
:1014A00000073868C00549D4386840F48070386057
:1014B000FFF7B6FD054600BF3868C0053ED4FFF70C
:1014C000AFFD401B6428F7D9032002B0BDE8F081CE
:1014D000706800F00C00082803D17068C0033FF565
:1014E00076AF61683068002900F00C81B1F5A02F5B
:1014F00000F00081B1F5803F40F01A8140F4803067
:101500001CE100BF2069002840F20000C4F2422024
:1015100000F0888001210160FFF782FD054600BFD1
:10152000306880073FF572AFFFF77AFD401B022855
:10153000F6D9032002B0BDE8F08100BFE168306A4F
:10154000002900F09D80052900F09280012940F0DB
:10155000AF8040F00100B1E00020C4F24220002141
:10156000C0F88014FFF75CFD054600BF706A800775
:101570007FF556AFFFF754FD401B0228F6D9032034
:1015800002B0BDE8F08100BF0027C4F2422700206E
:101590003866FFF745FD022D05460DD13068800104
:1015A00040F1DE80FFF73CFD401B02284FF00300B6
:1015B000F4D902B0BDE8F081306880014FD5FFF763
:1015C0002FFD401B02284FF00300F5D9F1E700BFC3
:1015D00040F20C00C2F20000006844F6D351C1F2A0
:1015E0006201A0FB0101480A019000BF00BF019801
:1015F000411E002801913FF413AF00BF0198411E26
:10160000002801913FF40CAF00BF0198411E002853
:1016100001913FF405AF00BF0198411E00280191E0
:10162000E4D1FDE600210160FFF7FAFC054600BFAA
:10163000306880077FF5F1AEFFF7F2FC401B02280F
:101640004FF00300F4D9B4E77068216A00F48032E7
:101650008A4209D1616A00F47010884204D10020E6
:1016600002B0BDE8F08100BF012002B0BDE8F0810A
:1016700040F004003062306A40F001001EE000BF1C
:1016800020F001003062306A20F004003062FFF781
:10169000C7FC054641F28837306A800720D5FFF73E
:1016A000BFFC401BB8424FF00300F5D981E700BFF3
:1016B00020F001003062306A20F004003062FFF751
:1016C000AFFC054641F28837306A800708D4FFF73F
:1016D000A7FC401BB842F7D9032002B0BDE8F08157
:1016E000B8F1000F3FF59FAEF06920F08050F06137
:1016F00099E600BF40F480203060306840F48030CC
:101700001CE000BF20F480303060306820F480207E
:101710003060FFF785FC0546306880037FF55EAEDC
:10172000FFF77EFC401B64284FF00300F4D940E72C
:1017300020F480303060306820F480203060FFF783
:101740006FFC0546306880033FF548AEFFF768FC44
:10175000401B6428F6D9032002B0BDE8F08100BF29
:10176000206AB0F5803F05D17168A26821F400318C
:10177000114371607168626A21F474111143084366
:10178000706001203866FFF74BFC0446306880012A
:101790003FF565AFFFF744FC001B02284FF0030044
:1017A000F4D906E7411E0020B0EB116F1CBF0120E9
:1017B00070474EF21002CEF2000251604EF62351F5
:1017C000CEF20001F0230B7007219060116070478A
:1017D000002804BF0120704710B5044690F841006E
:1017E00028B9002084F84000204600F063F8242047
:1017F00084F841002068D4E90212C36823F400533E
:10180000C360036923F440531A430261D4E90423FB
:101810001143C268194341F20C639A431143C160FA
:101820004169A26921F44071114343F60002C4F2F8
:1018300001029042416103D0FFF78CFD02E000BF3E
:10184000FFF79CFDD4E90023192148439900B0FB20
:10185000F1F048F21F5CC5F2EB1CA0FB0C314FF617
:101860009C734909C0F6FF7301FB0300322303EBAD
:101870000010A0FB0C03F02000EA531000EB011055
:10188000C3F34311084490601069202120F4904074
:101890001061506920F02A005061D06840F4005077
:1018A000D0600020606484F8411084F842106063C6
:1018B00010BD000070B586B040F60004C4F201040B
:1018C000006804F54051002688420596CDE903667C
:1018D000029601D006B070BD41F21800C4F20200B9
:1018E000016802AD41F480410160016801F480416A
:1018F00001910199016841F00401016000682946E5
:1019000000F00400019001984FF400700290022052
:101910000390032005902046FFF788FA4FF480607B
:10192000CDE90206204629460496FFF77FFA06B065
:1019300070BD00002DE9F04381B0044690F84100ED
:10194000202809D100294FF0010018BF002A07D133
:1019500001B0BDE8F08300BF022001B0BDE8F08314
:101960000020606421201D460E4684F84100174681
:10197000FFF756FBA784E784A1688146B1F5805F35
:1019800002D1206900285DD037460020E28C216812
:10199000002A5DD06A1C24D0002D4AD0804600BFAA
:1019A0000868000608D4FFF73BFBA0EB0900A8423B
:1019B0007AD82168C868F3E717B117F8010B04E07B
:1019C00038F8020B00276FF35F204860E08C013885
:1019D000E084E08C0028E3D13AE000BF0A681206F8
:1019E00009D40A68120606D40A6812065CBF0A689F
:1019F0005FEA0262F2D51FB117F8012B05E000BFC4
:101A000030F8022B00276FF35F224A60E28C013A24
:101A1000E284E28C002AE4D11AE000BF30F8022B05
:101A200000276FF35F224A60E28C013AE284E28C85
:101A300072B10A68120635D5002FEFD017F8012BC6
:101A4000F1E700BF00273046E28C2168002AA1D1CF
:101A5000086840061ED42DB3681C14D108684006DF
:101A60002AD40868400627D40868400624D40868A9
:101A700040064FF00000F1D50DE000BF2068C168BE
:101A80000068400618D4FFF7CBFAA0EB0900A84283
:101A9000F4D909E00020202184F8411001B0BDE80C
:101AA000F08300BFFFF7BCFA0320202184F8411027
:101AB00001B0BDE8F08300BF0020202184F8411070
:101AC00001B0BDE8F0830000FEE7000010B540F271
:101AD0002C1046F20041C2F20000C4F200010922BB
:101AE00000234FF0807480E80E0000F10C014FF4E9
:101AF000802C4FF4801E81E8085084618383FEF7B8
:101B000047FF002808BF10BDBDE81040FEF718BC15
:101B10002DE9F04385B00020CDE90300CDE90100B7
:101B200041F21800C4F20200016840F6004941F099
:101B3000400101600168C4F2010901F04001009117
:101B40000099016809F5406541F0040101600168F0
:101B5000012201F004010091009901684FF0200872
:101B600041F0080101600068202100F008000090A9
:101B7000009828460127FFF74DFA48462021012208
:101B8000FFF748FA01AE032428463146CDE9018724
:101B900003970494FFF74AF948463146CDE9018797
:101BA000CDE90374FFF742F905B0BDE8F08300000A
:101BB00080B540F2541043F60001C2F20000C4F2B6
:101BC000010100234FF00C0C4FF4E13280E80E00CD
:101BD000C0E90333C0E905C3C361FFF7F9FD00287D
:101BE00008BF80BDBDE88040FEF7AABBFEE700004D
:101BF000FEE700007047000070470000FFF716BACC
:101C000070470000ADF5047D00F034FE00F0FEFAF0
:101C100000254FF48030002100220023009501951B
:101C200000F0AAFB42F2943443F2E107C2F200044E
:101C3000C0F6000720464FF4FC614FF4FD6200231C
:101C4000CDE9007500F066FE00F018FA3FA14FF2F2
:101C5000871017220023009500F0DAF941A14FF216
:101C6000951012220023009500F0D2F942A14FF204
:101C70008C100C220023009500F0CAF945F6406054
:101C8000C0F6000003F0E2FB45F690690DF5037B1A
:101C90003DA6C0F600090FF2001802AF0FF2041AB9
:101CA00002E000BF03F0CAFCFFF7BAF90146204684
:101CB00000F0C0FF204601F099F80028F2D020463D
:101CC000594601F083F801780546304603F038FEA6
:101CD0008398012817D96978484603F031FE839923
:101CE00003290BD3A978484603F02AFE83990429D7
:101CF00004D3E978484603F023FE8399042902D9E6
:101D0000404603F01DFE0A2004F06CF8BDF80C12EA
:101D1000284600223B4603F09BFC0546204601F086
:101D20005DF8002DBED09DF80810BDF80822504681
:101D300003F006FEBDF80852FFF772F9034620468D
:101D400039462A4601F064F8ACE700BF73746D337E
:101D500032663130332D636865636B706F696E7402
:101D60002D346200302E312E302D6C78792D6F7627
:101D700065722D756473000074722D73746D333247
:101D80006631303300000000554453207265713ACB
:101D9000202530327800000020E280A6282575201A
:101DA00042290000554453207273703A2025303286
:101DB00078202825752042290A00000040F22C10C6
:101DC000C2F20000FEF7B4BCFEE700004EF60C5075
:101DD000BFF34F8FCEF200000168042201F4E061EE
:101DE000C0F2FA5211430160BFF34F8F00BF00BF32
:101DF00000BF00BFFAE7000040F2C410C2F20000CA
:101E0000C17C012918BF704790F8271001291CBF19
:101E10001430704790F83B1001291CBF28307047E0
:101E200090F84F1001291CBF3C30704790F86310A8
:101E300001291CBF5030704790F8771001291CBF52
:101E40006430704790F88B1001291CBF78307047C0
:101E500090F89F108C30002918BF002070470000B8
:101E600040F2C412C2F20002D17C012906D11188CD
:101E70008142114602D10846704700BF114631F831
:101E800014CFCB7C012B08BF8445F4D0114631F828
:101E900028CFCB7C012B08BF8445ECD0114631F80C
:101EA0003CCFCB7C012B08BF8445E4D0114631F8F0
:101EB00050CFCB7C012B08BF8445DCD0114631F8D4
:101EC00064CFCB7C012B08BF8445D4D0114631F8B8
:101ED00078CFCB7C012B08BF8445CCD032F88C1F47
:101EE000D37C89B2814218BF0022002B08BF1A465A
:101EF00011460846704700002DE9F04F81B040F2CE
:101F0000C114C2F200048A46217840F2C4179B46ED
:101F100090468146C2F2000741B1F87CC0070ED05E
:101F200038883C46484544D009E000BF40F2C41020
:101F3000C2F20000A021FEF730F9012020703C46DB
:101F400034F8140FE17C012908BF484531D03C46E4
:101F500034F8280FE17C012908BF484529D03C46C8
:101F600034F83C0FE17C012908BF484521D03C46AC
:101F700034F8500FE17C012908BF484519D03C4690
:101F800034F8640FE17C012908BF484511D03C4674
:101F900034F8780FE17C012908BF484509D037F8AB
:101FA0008C1FF87C01284FF000002DD149453C469C
:101FB0002AD1A07C20B30026002700BF04EB8605B1
:101FC000688800F06FF8B8B129796A790139C9B227
:101FD00090F822308D189D420ED8FBB29F185F45B5
:101FE0000AD853440844811C1846FEF7BDF8A07C6B
:101FF00001368642E2D304E0002001B0BDE8F08F54
:102000000027012088F8007001B0BDE8F08F0000C3
:102010002DE9F04F81B040F26427C2F200079846E4
:102020003B78272B26D80546581C40F2662A387084
:10203000C2F2000A2A2003FB00A703FB00F9BE1C22
:1020400030468B4628211446FEF7A7F82AF8095097
:10205000202C28BF202430465946224687F82240AB
:10206000FEF782F80A9887F8238087F8240000207A
:1020700087F8250001B0BDE8F08F000080B540F280
:102080006420C2F200000021017003F045F94BF614
:10209000EF61CDF6AD61484040F21401C2F200019B
:1020A000086080BD40F26421C2F200010978002975
:1020B00004BF0020704770B52A22514340F26624C5
:1020C000A1F17E0CA1F12A03A1F1540E0022C2F26B
:1020D0000004A55A854217D0934212D0A5186E8DE0
:1020E000864213D096450CD0B5F85460864211D084
:1020F000944506D0B5F87E6086420FD0A832914252
:10210000E7D1002070BD00BFA01870BD05F12A0006
:1021100070BD00BF05F1540070BD00BF05F17E0029
:1021200070BD00002DE9F04381B040F26423C2F29B
:1021300000031B78002B4DD040F26625C2F200054B
:102140002F88874220D10124202A4FF0000316D87F
:1021500095F82370FF0712D08046A81C89461746C1
:10216000FEF702F83E4685F8227001F07FF828B1AC
:1021700003681BB14046494632469847012304EAAA
:10218000030001B0BDE8F0835435C3F1000C022711
:102190000CEB0704012C1DD035F82A6C86421FD0A9
:1021A000C4B12E88864223D0661C13D06E8D864221
:1021B00024D0A61C0ED0B5F854600437864205F131
:1021C000A805E5D1023F00249F4238BF0124543DB9
:1021D000BAE700BF002404EA030001B0BDE8F083C1
:1021E000013F00242A3D9F4238BF0124ACE700BFD5
:1021F00000249F4238BF0124A6E700BF0137002416
:102200009F4238BF01242A359EE7000070B582B096
:1022100000F0DCFF014640F28800C2F20000051D1C
:102220004FF6000240F22536C0F60002284602238F
:10223000009602F047FD00281CBF02B070BD40F6BA
:10224000F804C2F2000444F2313628462146C4F2B2
:10225000544602F029FF10B92068B04205D0201D75
:1022600040F22131FDF799FF266045F66C60C0F61B
:10227000000002B0BDE8704000F0FEBF40F6F8017B
:10228000C2F200010A79D2B11D31013A51F8183C6D
:10229000834217D09AB151F8103C834216D0012ADC
:1022A0000DD051F8083C834214D0022A07D00B68A5
:1022B000834210D0043A531C01F12001E6D1FF20E3
:1022C000704700BF18390879704700BF1039087986
:1022D000704700BF083908797047000010B540F614
:1022E000F80CC2F2000C9CF804E0BEF1000F20D004
:1022F0000CF11D02AEF1010352F8184C844229D0B2
:102300009BB152F8104C84422AD0012B0DD052F8C8
:10231000084C84422AD0022B07D01468844220D073
:10232000043B5C1C02F12002E6D1BEF1630F88BFC2
:1023300010BD0CEBCE02C2F805000EF10100517287
:102340008CF8040040F28800C2F200000121017004
:1023500010BD00BF183A10798842F9D004E000BFE0
:10236000103A10798842F3D01171EBE7083A1079EE
:102370008842EDD0F8E700002DE9F04F81B091469A
:1023800040F6F602C2F200021E461378632B35D8DF
:102390000746DDE90A0A40F62048C3EB0315C2F2FE
:1023A00000080090581C08EB85048B46107004F15F
:1023B00008003421FDF7F1FE27F07F4048F82500A2
:1023C0000020B9F1000F84F804B0A4F80500E07112
:1023D00018BF002E0CD001202072202E28BF2026EE
:1023E00004F109004946324684F82960FDF7BCFE35
:1023F0000099002918BFBAF1000F03D101B0BDE860
:10240000F08F00BF012084F82A00BAF1100F28BF16
:102410004FF0100A04F12B00524684F83BA001B0A3
:10242000BDE8F04FFDF7A0BE2DE9F04140F6F60102
:10243000C2F2000120F07F4209786FF07F439A4298
:102440005ED1002955D001F0030C002204294FF081
:10245000000328D38B081B01A3EB910340F6204611
:102460001F01C2F200065025002400233019F03469
:10247000A74203F10403057180F82A20C0F8052063
:1024800080F8405080F86620C0F8412080F87C50E9
:1024900080F8A220C0F87D2080F8B85080F8DE20B7
:1024A000C0F8B920E2D1BCF1000F22D0C3EB031277
:1024B00040F62043C2F2000303EB820250270023C0
:1024C000BCF1010F177182F82A30C2F8053010D024
:1024D000BCF1020F82F8407082F86630C2F84130D9
:1024E00007D0502082F87C00002082F8A200C2F8B9
:1024F0007D00002918BF012101F00100BDE8F08135
:1025000089B3C1EB01136FF03B046FF0B30704EB29
:1025100083066FF0770440F620484FEA830C07EB00
:10252000830E04EB83040025C2F2000858F805303E
:10253000934200F0CB80AE4215D008EB0507FB6B51
:10254000934200F0C780AC420DD0BB6F934200F0C5
:10255000C580AE4507D0D7F8B430934200F0C280B2
:10256000F035AC45E2D182B24FF6FF739A4201D00A
:10257000002A49D1002947D001F0030C04294FF06B
:10258000000247D200230021BCF1000F00F0B4800C
:10259000C3EB031240F62043C2F2000353F822704B
:1025A00003EB8202474017F47F0F07D150211171CE
:1025B000002182F82A10C2F805100121BCF1010F98
:1025C00000F09A80134653F83C7F474017F47F0F82
:1025D00007D150211971002183F82A10C3F8051082
:1025E0000121BCF1020F00F0878052F8783F58407B
:1025F00010F47F0F40F0808050201071002082F88E
:102600002A00C2F8050076E0002101F00100BDE8D3
:10261000F08100BF8B081B01A3EB910140F6204421
:102620004FEA011EC2F200044FF0500800260023BA
:10263000002104E0F036B64503F10403A4D0A75905
:10264000474017F47F0F04EB060711D0FD6B4540A0
:1026500015F47F0F18D0BD6F454015F47F0F1FD0C4
:10266000D7F8B450454015F47F0FE3D125E000BF03
:10267000012187F8048087F82A20C7F80520FD6B20
:10268000454015F47F0FE6D1012187F8408087F897
:102690006620C7F84120BD6F454015F47F0FDFD19C
:1026A000012187F87C8087F8A220C7F87D20D7F821
:1026B000B450454015F47F0FBCD1012187F8B88094
:1026C00087F8DE20C7F8B920B4E700BF08EB0500A3
:1026D0000AE000BF07F13C0006E000BF07F1780008
:1026E00002E000BF07F1B40050210171002180F821
:1026F0002A10C0F80510012101F00100BDE8F081A9
:1027000040F6F600C2F200000078704740F6F6018D
:10271000C2F200010A786AB12DE9F04140F6204C7E
:1027200002F0030E042AC2F2000C07D2002300229A
:1027300024E000BF002290B2704700BFACF1F0016E
:1027400002F0FC080023002291F8F45091F8306167
:1027500091F86C71054291F8A84118BF0132064208
:1027600018BF0132074218BF0132044203F10403CB
:1027700018BF0132984501F1F001E5D1BEF1000F1B
:1027800017D0C3EB03110CEB81010B79034218BF87
:102790000132BEF1010F0CD091F84030034218BF56
:1027A0000132BEF1020F04D091F87C10014218BF33
:1027B0000132BDE8F04190B27047000040F6F601EA
:1027C000C2F200010978002904BF0020704770B5EB
:1027D000C1EB01116FF0B30202EB810E6FF03B020F
:1027E00002EB81036FF0770240F6204420F07F4037
:1027F0004FEA810C02EB81020021C2F2000465580D
:10280000854215D08B4211D06518EE6B864211D0EF
:102810008A420BD0AE6F864210D08E4506D0D5F8D6
:10282000B46086420ED0F0318C45E8D1002070BDF6
:10283000601870BD05F13C0070BD00BF05F1780067
:1028400070BD00BF05F1B40070BD000040F6F60198
:10285000C2F200010A7840F6204C0021C0EB0013C0
:10286000C2F2000C904238BF0CEB8301084670475F
:10287000FF20704780B540F6F600C2F2000000214C
:10288000017040F62040C2F2000041F27071FDF785
:1028900084FC80BD80B582B0019040F25410C2F239
:1028A000000001A901224FF6FF73FFF743F80198DA
:1028B00002B080BD40F2B002C2F20002137833B31E
:1028C000014602F12C005A1E19E000BF30F81C3CF2
:1028D0008B4204BF1C387047012A18D030F80E3CD8
:1028E0008B4204BF0E387047022A10D003888B42F7
:1028F00008BF7047043A531C00F1380007D030F885
:102900002A3C8B4204BF2A387047002ADED10020BF
:10291000704700002DE9F04F81B00E46DDE90A98BE
:1029200042F22C0A42F238019B461546074600EB5C
:102930000A04FDF732FC41F21400002147F80A6056
:10294000656084F808B0C4E90398395401B0BDE863
:10295000F08F00000B79002B08BF70472DE9F04F76
:1029600093B00D4615F8057F3C09032C14D842F2AC
:10297000210600EB060941F2040C00EB0C0BDFE82A
:1029800004F003390F1F00BF17F00F046ED00121B0
:102990005A1A28BFA24273D213B0BDE8F04F704755
:1029A0000678012EF8D19BF8086077403F0700F0C9
:1029B000AF800021017013B0BDE8F04F704700BF39
:1029C0009BF810000128E7D107F00F00012800F064
:1029D000EB80002840F0F080887989F80000C87901
:1029E00089F80200002089F8010002208BF810000D
:1029F000EAE000BF8E7907F00F0756EA072749D0B3
:102A0000924602215B1A4FF0000898BF4346DAB2A3
:102A1000974238BF3B46421CDCB22944054610466B
:102A20002246FDF7A1FB40F60100ABF808000120AB
:102A300028706846CBE9007400F10804D9F80F50FB
:102A4000204644218BF80A80CBF80CA0FDF7A5FBAB
:102A5000E80A009518BF012099F813108DF8450079
:102A60008DF84710C1B303203DE000BF012B93D088
:102A70008C79002C90D002215A1A28BFA2428BD305
:102A8000421C2944054610462246FDF76DFBCBE962
:102A9000004483E0062BFFF47FAFD1F807100FBA94
:102AA000B7F5805F40F29680684600F10804D9F8D7
:102AB0000F5020464421FDF770FBE80A009518BF2F
:102AC000012099F813108DF8450000298DF8471062
:102AD00000F08480032088E06FF0330020714FF015
:102AE000CC3020600820D9F817208DF804004FF46E
:102AF0000360002AADF805008DF807803FF44CAF65
:102B0000D9F81B106846904713B0BDE8F04F7047E6
:102B1000DBE90076013BBF1BDDB2AF4238BF3B466D
:102B200005463044DCB20130063116462246FDF738
:102B30001BFBDBE900109BF808200319501C8BF8E5
:102B400008009BF80A008B4200F10100CBF804302A
:102B50008BF80A00CBF80C6020D29BF80910C0B2A9
:102B60000139C9B28142BFF417AF684600F10804C9
:102B70000025D9F80F60204644218BF80A50FDF754
:102B80000CFBF00A009618BF012099F813108DF87D
:102B900045008DF84710B9B303203CE000202870B1
:102BA00013B0BDE8F04F704799F807000130C1B28B
:102BB000112989F8070007D300208BF8100013B003
:102BC000BDE8F04F704700BFC9F8032013B0BDE85F
:102BD000F04F70479246062114E700BF6FF03300B4
:102BE00020714FF0CC3020600820D9F817208DF8E4
:102BF000040040F63200ADF805000020002A8DF8F0
:102C000007007FF47DAFC7E66FF0330020714FF00F
:102C1000CC3020600820D9F817208DF804004FF43C
:102C20000360002AADF805008DF807507FF468AF07
:102C3000B2E600002DE9F04FA3B042F21802871867
:102C4000027841F21003012A00EB030606D1326834
:102C50008A1AB2F57A7F24BF002202703279022AE2
:102C60000ED0012A40F08B80F868081AB0F57A7F00
:102C7000C0F085800020307123B0BDE8F08F00BF28
:102C8000FA68FB7A8A1A9A4279D38846D7E9001201
:102C90003C7F4FF0070A891A002C18BF4FF03F0AFB
:102CA000514538BF8A46397A022363F31F118DF8E4
:102CB0000010104441F215010144684601305246AB
:102CC000FDF752FA0DF14009BD6909F104004821F0
:102CD0000AF1010BFDF761FAE80A109518BF01200F
:102CE0008DF885008DF8874064B1BAF1070F49D897
:102CF0005FFA8BF209F1050069468DF844B0FDF7E3
:102D000033FA1BE05FFA8BF4082C98BF08245FFAB3
:102D10008BF509F1050069462A468DF84440FDF718
:102D200023FAA5420AD2A4EB0A01023909EB0500F5
:102D3000C9B205300131CC22FDF728FA3A6AF2B166
:102D4000796A10A89047D0B1D7E900103A7A00EB21
:102D50000A03501C3872B87A8B4200F101007B6084
:102D6000B872C7F80C80BFF485AF797AC0B2013968
:102D7000C9B2814203D2012030710020387423B0DF
:102D8000BDE8F08FBAF10C0F02D20C24BFE700BFF0
:102D9000BAF1100F02D21024B9E700BFBAF1140F34
:102DA00002D21424B3E700BFBAF1180F02D21824DC
:102DB000ADE700BFBAF1200F02D22024A7E700BF81
:102DC0003024BAF12F0F88BF4024A0E719B141F297
:102DD000040282580A6001307047000041F2040189
:102DE00042180023536043507047000001780029C7
:102DF0001CBF0020704741F2040101444A680020D2
:102E0000002A08BF704709688A4228BF012070471E
:102E10002DE9F04FA7B041F21406875D27B10120DC
:102E200027B0BDE8F08F00BF41F20107D71B17F5AF
:102E3000805FC0F04B8142F2180700EB07080DF1EC
:102E4000100A98F81C700546072A0AF101002DD8CF
:102E500067BB8DF810201646FDF786F90DF1500975
:102E6000D8F8184009F104004821751CFDF795F9C0
:102E7000E00A149418BF01208DF8950008208DF801
:102E8000540009F1050051462A468DF89770FDF768
:102E90006BF9062E00F20A8109EB05000530C6F138
:102EA0000701CC22FDF772F900E100BF3E2A0AF1CA
:102EB000020409D847B1082AC0F0988002260023EE
:102EC00020468DF8112093E041F21500284402932A
:102ED000019503911746FDF747F90020B0EB173F26
:102EE000C8F8007008D1102040EA17224FF0020BFA
:102EF000394620460AE000BF4FF480110AF106006F
:102F0000CDF812104FF0060B0021102298F81C90FB
:102F10008DF8111008218DF81020B9F1000F18BF9D
:102F20004021A1EB0B04A74238BF3C46039922463F
:102F30004FF0080AFDF718F904EB0B050DF1500BE3
:102F4000D8F818700BF1040048210394FDF725F917
:102F5000F80A149718BF0120B9F1000F8DF89500F9
:102F60008DF8979006D0092DAA4607D30D2D69D26A
:102F70000C2708E0E8B2082888BF82465FFA8AF783
:102F8000402F28BF40270BF1050004A92A46ECB2C8
:102F90008DF85470FDF7E8F8A74209D9E9433944A0
:102FA0000BEB0500C9B205300131CC22FDF7EEF87C
:102FB000D8F82020002A00F08980D8F8241014A81E
:102FC0009047002800F08280019803993044C8F8A7
:102FD0000410012188F8081001700299002088F877
:102FE0001000C8F80C1027B0BDE8F08F012613467A
:102FF0008DF810301446FDF7B7F80DF15009D8F8E8
:10300000185009F1040048213444FDF7C6F8E80AD5
:10301000149518BF0120092C8DF895008DF8977034
:1030200008D209F1050004A922468DF85440FDF7A5
:103030009BF83BE00D2C01D20C2623E0112C05D28D
:1030400010261FE0112D05D210279CE7152C05D264
:10305000142617E0152D05D2142794E7192C05D254
:1030600018260FE0192D05D218278CE7212C05D240
:10307000202607E0212D2DD2202784E73026302C72
:1030800088BF402609F1050004A92246E5B28DF863
:103090005460FDF769F8AE4208D9E143314409EBC9
:1030A0000400C9B205300131FBE600BFD8F820208A
:1030B00062B1D8F8241014A89047C0074FF002005E
:1030C00018BF002027B0BDE8F08F00BF022027B056
:1030D000BDE8F08F3027302D88BF402753E7000030
:1030E00080B503680279411D1846FDF7EDF8B0FA86
:1030F00080F0400980BD000090B0FDF7A5FF0024DE
:103100000120CDE90B44CDE9094406900A904FF423
:10311000E0104FF4803102250F9006A8CDE9071486
:10312000CDE90D51FEF73EF920B1EFF3108072B6F4
:10313000FEE700BF0F20CDE901054FF48060CDE927
:10314000040401A802210394FEF726F820B1EFF34E
:10315000108072B6FEE700BFFEF7DAFCFEF7B6FCA1
:10316000FEF726FDFDF790F803A002F041FEFEF702
:1031700049FD00BFFEE700BF73746D333220706FEE
:10318000776572206F6E207265736574210D000083
:10319000B0B586B0002504460195FDF72FFE40F23C
:1031A000FF7024EA000004900120059002A801A904
:1031B000CDE90255FDF714FD0446FDF789FD002C0D
:1031C00018BF4FF0FF34204606B0B0BD45F67C6016
:1031D000C0F6000070470000002904BF6FF0030034
:1031E000704780B5034608461946FCF7BDFF00202E
:1031F00080BD00004FF4006070470000F0B581B062
:10320000A1B116460C460546FDF7F8FD002000BFAB
:10321000871CB74210D8225A291801200023FDF735
:1032200061FD00283846F3D012E000BF6FF00304C0
:10323000204601B0F0BD00BFB04211D2215C002396
:1032400041F47F42291892B20120FDF74BFD38B1BD
:103250004FF0FF34FDF73CFD204601B0F0BD00BF4C
:103260000024FDF735FD204601B0F0BD42F290305C
:10327000C2F200000068704742F29031C2F20001D1
:1032800008607047B0B5054600890C46032811D187
:103290006868427801788078120242EA0141084465
:1032A000FFF7C2F880B12878403020700120A4F8E0
:1032B0000002B0BD7F202070287860701320A070BD
:1032C0000320A4F80002B0BD7F2020702878607031
:1032D0003120A0700320A4F80002B0BD0289012AA9
:1032E0000AD87F220A700078487013208870032063
:1032F000A1F80002704700BF80B54268137803F060
:103300007F0EBEF1040F05D37F220A70007848704B
:1033100012200BE092F801C0ACF1040212F1040F8C
:103320000CD87F220A700078487031208870032002
:10333000BDE88040A1F80002704700BF5AB240F2D9
:10334000C013C2F2000383F800E040F21003C2F29F
:103350000003B2F1FF3F83F800C00BDD007881F875
:1033600001E0403008700220BDE88040A1F8000272
:10337000704700BF012081F802020020BDE88040B4
:10338000A1F800027047000002899AB142681378E0
:1033900003F07F0CACF1030212F1030F14D87F226B
:1033A0000A7000784870122088700320A1F800028B
:1033B000704700BF7F220A70007848701320887021
:1033C0000320A1F80002704780B55AB2ACF10103A6
:1033D000B3FA83F340F2110E5B09C2F2000EB2F1B0
:1033E000FF3F8EF80030BDE8804009DD007881F8AD
:1033F00001C0403008700220A1F80002704700BFF1
:10340000012081F802020020A1F8000270470000AC
:103410000289AAB1F0B581B04268177807F07F043D
:10342000621FD2B2FB2A15D87F220A70007848703A
:10343000122088700320A1F8000201B0F0BD00BF87
:103440007F220A7000784870132088700320A1F84A
:103450000002704705460E4602F0E6F9A04215D17B
:103460002046FF0902F014FA28787470403030705A
:1034700043F20020CFF20140C6F802000620A6F871
:10348000000286F8027201B0F0BD00BF01380328C7
:103490000AD8DFE800F003090D1500BFE01EC0B236
:1034A0000228DDD310E000BF012CD9D00CE000BF12
:1034B000042C09D80120A04010F0160FD0D103E051
:1034C00007F07D000128CBD07F2030702878707005
:1034D0002220B0700320A6F8000201B0F0BD000069
:1034E0002DE9F04F81B040F2C116C2F200063278E9
:1034F0000C46054642B940F2C410C2F20000A021B9
:10350000FCF74BFE012030702889002877D06F68C7
:103510003978032910D0012968D106286FD997F886
:103520000190A9F1F40111F1030F65D87F202070FB
:1035300028786070312067E0022860D940F2C41614
:10354000C2F200067878F27CB978012A41EA002CB0
:1035500003D132886245324637D0324632F8147F82
:10356000D37C012B08BF67452FD0324632F8287F25
:10357000D37C012B08BF674527D0324632F83C7F09
:10358000D37C012B08BF67451FD0324632F8507FED
:10359000D37C012B08BF674517D0324632F8647FD1
:1035A000D37C012B08BF67450FD0324632F8787FB5
:1035B000D37C012B08BF674507D036F88C2FF37CEE
:1035C000012BB3D162453246B0D12F780023D3749A
:1035D00007F14002227003226270A070E1700420A3
:1035E000A4F8000201B0BDE8F08F00BF7F2020707A
:1035F00028786070122007E0033881070CD07F2004
:103600002070287860701320A0700320A4F80002B6
:1036100001B0BDE8F08F00BF1FFA80FBCBF3870A33
:10362000BAF1050FBFF482AFB87840EA09280090DC
:103630004046FEF715FC20B9FEF7DEFB002800F03F
:103640009780DDF800C04FEA9B010126BAF1000F18
:10365000A0F800808174C6747BD0BAF1040F01F029
:10366000030E4FF0000B37D16FF0070A07EB8B0307
:10367000B3F8036000EB8B0236BA360C56805E79E5
:103680000BF1040B16719E79BBF1040F5671B3F860
:10369000076036BA4FEA1646D68093F8098000EBE9
:1036A0000A0686F81080997A0AF1100A7174B3F844
:1036B0000B1009BA4FEA11415181597B3175997B41
:1036C0005173B3F80F1009BA4FEA1141D181597CF7
:1036D0003176997C7176C9D1BEF1000F4FF00106A9
:1036E00037D007EB8B0191F803800B7900F1020AC8
:1036F00043EA08232AF82B304B790AEB8B008370BE
:103700008979BEF1010FC17023D00BF1010007EBE5
:10371000800191F803800B79BEF1020F43EA082380
:103720002AF820304B790AEB800083708979C170C8
:103730000FD00BF1020007EB8001CA780B7943EA46
:1037400002222AF820204A790AEB800082708979C7
:10375000C170287866704030207084F8029084F838
:1037600003C00420A4F8000201B0BDE8F08F00BF40
:103770007F20207028786070222045E702899AB166
:103780004268137803F07F0CACF1060212F1060FC9
:1037900014D87F220A7000784870122088700320A5
:1037A000A1F80002704700BF7F220A7000784870BD
:1037B000132088700320A1F80002704710B500782C
:1037C00040F224144030DA0908700220C2F20004EA
:1037D00081F801C0A1F8000281F8022284F800C03B
:1037E00001F09AFD606001F06FFDBDE8104002F04D
:1037F0002BB800002DE9F04F81B0054600890C463A
:10380000022805D87F20207028786070132030E0CF
:10381000686890F8009090F8018090F802A048EA5B
:103820000920FFF747F8C8B18346C07A012802D1C2
:1038300001F090FDC0B1BAF1030F0FD80020DFE80E
:103840000AF04903481F00BF9BF80A200BF1020051
:103850000BF10601FCF788FC00203BE07F20207084
:1038600028786070312004E07F2020702878607014
:103870003320A0700320A4F8000201B0BDE8F08F4F
:103880009BF80A202989D01C8842BBD8032368688A
:1038900003EB42038B4205D9C11C0BF10200FCF77C
:1038A00063FC16E0AAB10230012100BF0BEB01035B
:1038B000871893F801C07F7810F8016F2CEA070C85
:1038C000374067445F709BF80A30994201F101016B
:1038D000ECD3012029788BF80C0001F14000207016
:1038E00084F8019084F8028084F803A09BF80A20F1
:1038F000201D0BF10201FCF737FC9BF80A00043095
:10390000A4F8000201B0BDE8F08F000003890BB3FA
:1039100070B54268157805F07F06032E4FEAD5147E
:103920002ED0022E20D0012E3ED1012B1ED0527857
:10393000103AD2B2042A5DD238A353F822200546A9
:1039400010460E4601F0B6F928784030307001205C
:1039500022E000BF7F220A70007848701320887030
:103960000320A1F800027047032B27D87F220A709A
:1039700000784870132088700320A1F8000270BD01
:1039800005460E4601F090F900283DD001F084F97B
:10399000287840303070032070700220A6F80002B2
:1039A00086F8024270BD00BF7F220A70007848701E
:1039B000122088700320A1F8000270BD9678537819
:1039C000D278360246EA03431A44A2F10A0340F2CF
:1039D000DF36B3420ED2054610460E4601F06AF9B4
:1039E00028784030307002207070A6F8000286F807
:1039F000024270BD7F220A700078487031208870C2
:103A00000320A1F8000270BD7F203070287870700C
:103A10002420B0700320A6F8000270BD7D000000D5
:103A2000FA000000F4010000E80300002DE9F04F67
:103A30008BB0054600890C46022811D310F0010016
:103A40000ED101F023F9297840312170298900290C
:103A500000F0BC804FF001094FF00008019021E018
:103A60007F202070287860701320A0700320A4F8B5
:103A700000020BB0BDE8F08F09F1010104F800A0CD
:103A800009F1020788B204F800B0B8B2204403A9D3
:103A90003246FCF769FB07EB06090420042800F016
:103AA0008880A7E0686800EB080110F808A091F88A
:103AB00001B04BEA0A263046FEF7F4FAA0B10746F9
:103AC00000884FF2801120F07F00884254D001F02E
:103AD000ABFE97F8241002294AD001294CD10238B4
:103AE000032849D38AE000BF0AF0FE00F2280AD179
:103AF00000208DF80B00304603A90DF10B022023A6
:103B0000FEF7FAF9A8B9019800286DD00768002FD0
:103B10006AD000208DF80B0031208DF80A00304665
:103B200003A90DF10B0220230DF10A060096B847F8
:103B300080B19DF80B601FFA89F081190231B1F54F
:103B4000007F99D97F202070287860701420A070A1
:103B500007E000BF7F20207028789DF80A10607071
:103B6000A1700320A4F800020120042821D041E024
:103B700001F0F0FB002843D097F822101FFA89F0DB
:103B800001440231B1F5007F28D809F1010104F8A0
:103B900000A088B209F1020604F800B0B0B297F8AC
:103BA00022202044B91CFCF7DFFA97F8220006EB2C
:103BB000000908F1020029891FFA80F88845FFF4FE
:103BC00071AFA4F800920BB0BDE8F08F4FF001097F
:103BD000A4F800920BB0BDE8F08F00BF7F202070EA
:103BE00028786070142040E77F202070287860706B
:103BF00031203AE70BB0BDE8F08F00BF222000E093
:103C000033207F212170297861702EE72DE9F04F54
:103C100081B0834600890C46002800F0B780DBF8AD
:103C20000400057805F07F06FEF722FE711E0929C3
:103C300030D84FFA85F8DFE801F0056D2D352DA558
:103C40002D2D2DB7BBF80810012940F29F80DBF81D
:103C50000410054649780846FEF758FD9BF8001009
:103C6000A5704031217001216170E170010A21715C
:103C700060710627B8F1FF3FA4F8007200F30381DA
:103C8000012084F802020020A4F8000201B0BDE87F
:103C9000F08F00BF7F2020709BF800006070122022
:103CA0007AE000BFBBF8080004286FD9DBF80400F5
:103CB00082784178C3780579100240EA01401844BF
:103CC000FEF77CFD002800F0CF809BF8001040310B
:103CD0002170042161704188A1700168090AE170B6
:103CE0000168217101796171017A012940F0D68062
:103CF000FF2D02D0012D40F0D18090F82920A31D86
:103D000000F1090105461846FCF72EFA95F829003E
:103D10000630C4E0BBF80810012937D9DBF80410DD
:103D20009BF8002091F8019002F1400121700221DE
:103D30006170A070FEF7E4FC002800F0B7808246B6
:103D40000026032705E000BF0136F0B2504580F0A1
:103D50009480F0B2FEF77AFD0028F5D0017911EADF
:103D6000090FF1D0B7F5FE7F00F290804188E2198B
:103D7000E15501680437090A5170016891700079B2
:103D8000D070E1E7BBF80800042835D87F20207008
:103D90009BF8000060701320A0700320A4F80002BC
:103DA00001B0BDE8F08F00BF9BF80010A07040315B
:103DB00021700A216170FEF7A3FC00285CD0064642
:103DC0000025032704E000BF0135E8B2B04254D219
:103DD000E8B2FEF73BFD0028F6D0B7F5FE7F55D8D8
:103DE0004188E219E15501680437090A51700168F8
:103DF00091700079D070E7E7DBF8040082784178B1
:103E0000C3780679100240EA01401844FEF7D6FC58
:103E100050B39BF80010FF2E01F1400121704FF0CC
:103E2000060161704288A27002684FEA1222E270B5
:103E3000026822710279627101D0012E04D1012140
:103E4000A171C179E1710821FF2E01D0022E05D1A7
:103E5000022363548079621802315070B8F1FF3F39
:103E6000A4F800120FDC0BE77F2020709BF8000005
:103E70006070312090E700BF0327B8F1FF3FA4F83E
:103E800000727FF7FDAE01B0BDE8F08F7F2020709B
:103E90009BF80000607014207EE700BF0620B8F198
:103EA000FF3FA4F80002EEDCEAE600BF0327B8F10A
:103EB000FF3FA4F80072E6DCE2E600002DE9F047DF
:103EC0000389022B0AD87F220A70007848701320D9
:103ED00003248870A1F80042BDE8F0874468227886
:103EE000A2F15007FFB2C02FC0F0B08002F00F0760
:103EF0007E1F16F1050F40F2A9804FEA121807F154
:103F0000010A0AEB0806B342DDD17B1E032B07F042
:103F1000030907D200274FF0000CB9F1000F1DD1A3
:103F200037E000BF07F004035E42E31F002700BF35
:103F3000043FBE4203F10403FAD11E795D7993F880
:103F400006C03604DB7946EA052666444FEA062EAB
:103F500043EA062C7F42B9F1000F1AD0661CF35DCC
:103F6000B9F1010F43EA0C2304D14FEA0C2E9C4611
:103F70000FE000BF37447E78B9F1020F46EA032C08
:103F800002D14FEA032E04E0BB784FEA0C2E43EA3D
:103F90000C2C102A5AD314F80A20B8F1010F51D072
:103FA00054446378B8F1020F43EA02224AD0A3785E
:103FB000B8F1030F43EA022244D0E378B8F1040FCA
:103FC00043EA02223ED02379B8F1050F43EA0222E8
:103FD00038D06379B8F1060F43EA022232D0A379D0
:103FE000B8F1070F43EA02222CD0E379B8F1080FA9
:103FF00043EA022226D0237AB8F1090F43EA0222CB
:1040000020D0637AB8F10A0F43EA02221AD0A37AC9
:10401000B8F10B0F43EA022214D0E37AB8F10C0F87
:1040200043EA02220ED0237BB8F10D0F43EA0222AD
:1040300008D0637BB8F10E0F43EA022202D0A37BC3
:1040400043EA022212B112EB0C030BD37F220A7057
:1040500000784870312003248870A1F80042BDE840
:10406000F08700BFBEF1005F05D345F20104C2F244
:104070000004A34207D3BEF1006FE7D30127C0F6C7
:104080000107BB42E2D2541CB4F5007F0AD97F225B
:104090000A7000784870142003248870A1F8004248
:1040A000BDE8F08700780D4600F14003084600F8AF
:1040B000013B6146FCF758F8A5F80042BDE8F087DF
:1040C00002897AB170B543681C78231F1E0613D08D
:1040D000DBB2FC2B20D87F220A7000784870312098
:1040E00021E000BF7F220A7000784870132088709A
:1040F0000320A1F8000270470C46054601F0E4F8E1
:104100002878214640302070042060700220BDE8ED
:104110007040A1F800027047012A0BD17F220A707B
:1041200000784870132088700320BDE87040A1F823
:10413000000270470646601EC0B20D4601F0D4F87A
:1041400000284BD0B6F808E0B446BEF1020F29466D
:1041500038D3012309E000BF0026013202728555E1
:10416000BCF808E0013373452CD2027A082A29D220
:10417000DCF80450002AED5CEED00678AE42F1D0B7
:10418000012A01D11646E8E74678AE42EAD0022A73
:10419000F8D08678AE42E5D0032AF3D0C678AE4296
:1041A000E0D0042AEED00679AE42DBD0052AE9D071
:1041B0004679AE42D6D0062AE4D08679AE4216467B
:1041C000CBD1CFE79CF800004C7040300870022043
:1041D000BDE87040A1F80002704700BF7F20287042
:1041E0003078294668702220A8700320BDE870400E
:1041F000A1F80002704700002DE9F04782B00C469C
:10420000054601F08BFB017831B17F2020702878C2
:104210006070222012E000BF2E89022E09D9696841
:104220004B7803F00F0707F1020C0CEB13129642C8
:104230000CD27F202070287860701320A07003209B
:10424000A4F8000202B0BDE8F08700BF91F800803A
:10425000002F49D091F802A0012F47D0CA78022F31
:1042600042EA0A2A42D00A79032F42EA0A2A3DD0BA
:104270004A79042F42EA0A2A38D08A79052F42EA7D
:104280000A2A33D0CA79062F42EA0A2A2ED00A7A9D
:10429000072F42EA0A2A29D04A7A082F42EA0A2A34
:1042A00024D08A7A092F42EA0A2A1FD0CA7A0A2F12
:1042B00042EA0A2A1AD00A7B0B2F42EA0A2A15D0B0
:1042C0004A7B0C2F42EA0A2A10D08A7B0D2F42EA41
:1042D0000A2A0BD0CA7B0E2F42EA0A2A06D00A7C91
:1042E00042EA0A2A02E000BF4FF0000A8146102B82
:1042F00002D200274AE000BF180911F80C7001280B
:1043000044D061444A78022842EA07273ED08A789E
:10431000032842EA072739D0CA78042842EA072747
:1043200034D00A79052842EA07272FD04A7906288F
:1043300042EA07272AD08A79072842EA072725D0A8
:10434000CA79082842EA072720D00A7A092842EACF
:1043500007271BD04A7A0A2842EA072716D08A7A0A
:104360000B2842EA072711D0CA7A0C2842EA07270D
:104370000CD00A7B0D2842EA072707D04A7B0E287B
:1043800042EA072702D0887B40EA072700F07EFC3C
:10439000D8B14669CEB15046394642462B460094C4
:1043A000B04768B1022089F800000020C9F80C006D
:1043B0000120C9E901A789F8100002B0BDE8F08723
:1043C000B4F8000200287FF43DAF7F2020702878E9
:1043D0006070702032E700002DE9F04782B00C4693
:1043E000054601F09BFA017831B17F2020702878D2
:1043F0006070222012E000BF2E89022E09D9696860
:104400004B7803F00F0707F1020C0CEB13129642E6
:104410000CD27F202070287860701320A0700320B9
:10442000A4F8000202B0BDE8F08700BF91F8008058
:10443000002F49D091F802A0012F47D0CA78022F4F
:1044400042EA0A2A42D00A79032F42EA0A2A3DD0D8
:104450004A79042F42EA0A2A38D08A79052F42EA9B
:104460000A2A33D0CA79062F42EA0A2A2ED00A7ABB
:10447000072F42EA0A2A29D04A7A082F42EA0A2A52
:1044800024D08A7A092F42EA0A2A1FD0CA7A0A2F30
:1044900042EA0A2A1AD00A7B0B2F42EA0A2A15D0CE
:1044A0004A7B0C2F42EA0A2A10D08A7B0D2F42EA5F
:1044B0000A2A0BD0CA7B0E2F42EA0A2A06D00A7CAF
:1044C00042EA0A2A02E000BF4FF0000A8146102BA0
:1044D00002D200274AE000BF180911F80C70012829
:1044E00044D061444A78022842EA07273ED08A78BD
:1044F000032842EA072739D0CA78042842EA072766
:1045000034D00A79052842EA07272FD04A790628AD
:1045100042EA07272AD08A79072842EA072725D0C6
:10452000CA79082842EA072720D00A7A092842EAED
:1045300007271BD04A7A0A2842EA072716D08A7A28
:104540000B2842EA072711D0CA7A0C2842EA07272B
:104550000CD00A7B0D2842EA072707D04A7B0E2899
:1045600042EA072702D0887B40EA072700F08EFB4B
:10457000D8B1066ACEB15046394642462B46009421
:10458000B04768B10120002189F80000C9E901A7FE
:10459000C9F80C1089F8100002B0BDE8F08700BF20
:1045A000B4F8000200287FF43DAF7F202070287807
:1045B0006070702032E7000070B50289022A0DD8C1
:1045C0007F220A7090F800C00320132302220124E6
:1045D00001F804C08B54A1F8000270BD426892F843
:1045E00001E092F802C012784CEA0E23A3F20324F1
:1045F000022C03D3A3F57F44022C55D202F07F0492
:10460000032C2BD0022C0DD0012C45D140F22005DB
:10461000C2F200056B8001232B70022352B2002AE4
:104620000CD529E040F22005C2F200056E889E42BA
:104630002AD100232B7052B2002A1DD400784C706E
:104640004030087005200422032481F802E001F8BC
:1046500004C08B54A1F8000270BD00BF40F22005D9
:10466000C2F200056E889E420ED12B78002B18BF37
:10467000022352B2002AE1D50020012340F2022297
:104680008B54A1F8000270BD7F220A7090F800C020
:10469000032024239AE700BF7F220A7090F800C00D
:1046A0000320122392E700BF7F220A7090F800C017
:1046B000032031238AE700002DE9F04105460089F7
:1046C0000C4678B36868067800F03EFE03280BD1EC
:1046D0007F202070287860703720A0700320A4F815
:1046E0000002BDE8F08100BF4FEAD618F10706F0DE
:1046F0007F0723D1012839D100F072FE2A89824236
:1047000010D901466868013000F06CFED0B32878FB
:104710006770403020700220A4F8000284F8028202
:10472000BDE8F0817F202070287860701320A07091
:104730000320A4F80002BDE8F08100BF00F028FECD
:10474000064600F04DFE2978054601F14000207034
:10475000A01C31462A466770FBF706FDA81CA4F88A
:10476000000284F80282BDE8F08100BF7F20207043
:10477000287860702420A0700320A4F80002BDE80F
:10478000F08100BF00F0E0FD03284FF07F002070B3
:1047900028784FF0350108BF36216070A1700320E2
:1047A000A4F80002BDE8F08102896AB1426812787B
:1047B000530613D07F220A70007848701220887048
:1047C0000320A1F8000270477F220A700078487029
:1047D000132088700320A1F80002704770B5D40937
:1047E0000D46064601F026F8307885F80242403042
:1047F0002870002068700220A5F8000270BD00003B
:104800002DE9F04383B00C46054601F087F80178A6
:10481000B1B32A89D2B36F68037C3E789E423BD104
:104820008046022944D1A2F1010900F02FFA68B1B3
:10483000D0F818C0BCF1000F08D0781C1FFA89F11D
:1048400032462B460094E04700285FD0D8F80C0091
:104850001FFA89F10844C8F80C0098F81000B4F861
:1048600000120130002988F810004FD128786670B6
:10487000403020700220A4F8000203B0BDE8F083AD
:104880007F2020702878607024200AE07F2020702C
:1048900028786070132004E07F20207028786070F2
:1048A0007320A0700320A4F8000203B0BDE8F083D9
:1048B00000F0ECF9F0B1476AE7B10020ADF80A006A
:1048C000A01C0DF10A014FF4FF723346CDE90054EC
:1048D000B847D8B12878667040302070BDF80A001B
:1048E000D8F80C20811C1044A4F80012C8F80C0061
:1048F00007E000BF28786670403020700220A4F8DE
:10490000000298F81000013088F8100003B0BDE8EC
:10491000F0830000B0B50C46054600F0FFFF0078BC
:1049200002280BD0D0B97F20207028786070242016
:10493000A0700320A4F80002B0BD00BF00F0A6F9EB
:1049400028B1C2691AB128462146904790B1B4F8FF
:10495000000298B1BDE8B04000F0E6BF00F096F963
:1049600028B1826A1AB128462146904710B1B4F89E
:10497000000218B1BDE8B04000F0D6BF2878403042
:1049800020700120A4F80002BDE8B04000F0CCBFC8
:104990002DE9F04F83B0054600890C46022805D862
:1049A0007F2020702F7813265EE000BFD5F804B07A
:1049B000A0F102091BF8027B1BF8016C46EA072AEA
:1049C00000F064F980465046FDF76CFB70B390F838
:1049D000231000293ED0CDF80890814600F024FF36
:1049E00099F82410012903D1053810F1040F37D9A3
:1049F000022903D100F0AEFC00283DD002985946B0
:104A00005FFA80F950464A46FDF78CFB40B3B8F197
:104A1000000F06D0D8F808301BB1504659464A4618
:104A200098472878403020701EE000BFB8F1000F92
:104A30000AD0D8F804703FB15FFA89F2504659465F
:104A40002B460094B847A0B97F2020702F783126DC
:104A50000AE000BF7F2020702F78722604E000BF9C
:104A60007F2020702F78222603206770A670A4F87C
:104A7000000203B0BDE8F08F7F2020702F7833262E
:104A8000F2E700002DE9F04F81B00489032C05D82E
:104A90007F220A70007848701320F0E040F2120282
:104AA000C2F2000212780AB3D0F804E09EF80020A7
:104AB000A2F1500717F1400FC0F0DC8002F00F07A1
:104AC0007E1F16F1050F40F2D5804FEA121907F14B
:104AD000010B0BEB09084445DAD97E1E032E07F0C3
:104AE000030A09D20025002621E000BF7F220A70B8
:104AF000007848703320C2E007F004077F42AEF12F
:104B000007060025043DAF4206F10406FAD13779C5
:104B1000737996F806C03F04F67947EA032303EB5E
:104B20000C0746EA072C3B024FEA0C266D42BAF10D
:104B3000000F17D00EF101077B5DBAF1010F46EAB5
:104B4000030C33460ED02F447B78BAF1020F43EAB0
:104B50000C2503D14FEA0C23AC4603E0BF782B02AF
:104B600047EA052C102A01D2002257E01EF80B203C
:104B7000B9F1010F52D00EEB0B077D78B9F1020F9E
:104B800045EA02224AD0BD78B9F1030F45EA022274
:104B900044D0FD78B9F1040F45EA02223ED03D79B8
:104BA000B9F1050F45EA022238D07D79B9F1060F37
:104BB00045EA022232D0BD79B9F1070F45EA022257
:104BC0002CD0FD79B9F1080F45EA022226D03D7AB2
:104BD000B9F1090F45EA022220D07D7AB9F10A0F16
:104BE00045EA02221AD0BD7AB9F10B0F45EA02223A
:104BF00014D0FD7AB9F10C0F45EA02220ED03D7BAC
:104C0000B9F10D0F45EA022208D07D7BB9F10E0FF4
:104C100045EA022202D0BD7B45EA0222A4EB080449
:104C2000A4B2A2427FF434AFB3F1202F22D345F2D5
:104C3000010402EB0C03C2F20004A3421AD20EEBF1
:104C40000803054660460C461946FBF78DFA28789E
:104C5000424600F14001204600F8011B6968FBF75D
:104C600083FA214608F10100A1F8000201B0BDE875
:104C7000F08F00BF7F220A70007848703120887062
:104C80000320A1F8000201B0BDE8F08F40F224003B
:104C9000C2F200004068704740F22C00C2F20000EF
:104CA000002181704161704740F22C00C2F2000087
:104CB0008078704740F22C01C2F200014861012067
:104CC000887070472DE9F04F93B0834600286FF04D
:104CD000030018BF002903D113B0BDE8F08F00BF57
:104CE0000868002841D0486800283ED08868E0B3B2
:104CF000DDF870A06FF00300BAF1000F18BF002BB1
:104D0000EAD0CF68002FE7D010460E461D469046E9
:104D1000B84750B3327C002A08BF0222511E11400E
:104D2000090622D1D7B2B1463E462946102F98BF78
:104D300010267D1E2E44B3B2B3FBF7F455447C43DA
:104D4000E31AB5FBF7F506EB030C05FB07C31E07DB
:104D50001E4603F10F0418BF24F00F06102F28BFC2
:104D60001E461FFA86FE704504D26FF0030013B092
:104D7000BDE8F08F99F8113005FB07F4002B08BF50
:104D8000FF23CBF80800B0FBFEF08BF81820ABF83F
:104D9000120000254FF480320004CBE900988BF814
:104DA0000C10ABF80EA0ABF81060ABF814C0ABF869
:104DB00016408BF819308BF81A50CBF81C20ABF842
:104DC000205000F06A8101200DF11C0A4CF2DE092E
:104DD0000BAE41F221040022CDE90022CDE90222EE
:104DE00006E000BF9BF80C1001358D4280F0418138
:104DF000002800F03981002704950CE0049D069FEF
:104E0000D3460DF11C0A4CF2DE0900BFBBF81200BC
:104E100001378742E6D2DBE90101DBF8002001FB24
:104E20000500BBF81010536807FB01005146102223
:104E300098470028EAD1BDF81C004845E6D1BDF8E6
:104E40002080BBF80E008045E0D1BDF82210B8F1FB
:104E5000000F00F0DF800591DBE90101BBF81020B5
:104E600001FB0500BBF8141007FB0200069747186A
:104E70004FF6FF7908E000BFA8EB0B085FEA084097
:104E80005F44D34600F0CC80DBF800001FFA88F5C1
:104E9000DA46AB464368202D28BF4FF0200B38463A
:104EA00031465A4698470028A8D1012D04D1002048
:104EB0005FEACB71E0D077E02BF0010041426FF068
:104EC000010000BF32189378D27889EA03235D008D
:104ED000ADB21B0448BF65406B009BB2B5F5004FF7
:104EE00028BF63405D00ADB2B3F5004F28BF6540F9
:104EF0006B009BB2B5F5004F28BF63405D00ADB2BB
:104F0000B3F5004F28BF65406B009BB2B5F5004F6D
:104F100028BF63405D00ADB2B3F5004F28BF6540C8
:104F20006B009BB2B5F5004F28BF634083EA0222B5
:104F300053009BB2B2F5004F28BF63405A0092B2B3
:104F4000B3F5004F28BF624053009BB2B2F5004F4B
:104F500028BF63405A0092B2B3F5004F28BF6240A9
:104F600053009BB2B2F5004F28BF63405A0092B283
:104F7000B3F5004F28BF624053009BB2B2F5004F1B
:104F800028BF63405A0002301FFA82F9B3F5004F80
:104F900001EB000228BF89EA0409023292D10230F3
:104FA0005FEACB713FF468AF305C89EA00204100D2
:104FB00089B2000448BF6140480080B2B1F5004F9B
:104FC00028BF6040410089B2B0F5004F28BF614062
:104FD000480080B2B1F5004F28BF6040410089B25F
:104FE000B0F5004F28BF6140480080B2B1F5004FD6
:104FF00028BF6040410089B2B0F5004F28BF614032
:1050000048001FFA80F9B1F5004F28BF89EA04096A
:1050100032E700BF4FF6FF7088427FF4F7AE0BE037
:10502000049DDDE905171FFA89F00DF11C0A4CF209
:10503000DE0988427FF4EAAEBDF81E000299411AEB
:1050400009B201294FF00001B8BF0121039A0A42B9
:1050500002D001200390D9E680B202900120039093
:10506000CDE90057D2E600BF002001358D42FFF4A4
:10507000BFAE0398C00710D0009902988BF81A10A1
:105080000199013080B2ABF81C100121012898BFB2
:105090000846ABF81E008BF8211001208BF8200089
:1050A000002013B0BDE8F08F50B100296FF003026B
:1050B0001CBF90F820305FEAC37305D110467047DB
:1050C0006FF003021046704790F82120012A1CBFA0
:1050D0004FF0FF307047F0B585B0827ED0E90135E2
:1050E000848B05FB0232038A056803FB0423848A50
:1050F0006D68C289064618190F46A84730B14FF0AF
:10510000FF3205B0BDE8F04010467047B6F80EC05B
:10511000B646BCF1000F07D0BCF1010F08D14FF625
:10512000FF7400203A4679E04FF6FF74ADE000BF0F
:105130002CF0010043424FF6FF746FF0010141F281
:1051400021003A465518AE78ED7884EA06246600C8
:10515000B6B2240448BF46407400A4B2B6F5004F6E
:1051600028BF44406600B6B2B4F5004F28BF4640A1
:105170007400A4B2B6F5004F28BF44406600B6B232
:10518000B4F5004F28BF46407400A4B2B6F5004FF6
:1051900028BF44406600B6B2B4F5004F28BF464071
:1051A0007400A4B2B6F5004F28BF444084EA052439
:1051B0006500ADB2B4F5004F28BF45406C00A4B205
:1051C000B5F5004F28BF44406500ADB2B4F5004FBF
:1051D00028BF45406C00A4B2B5F5004F28BF44403D
:1051E0006500ADB2B4F5004F28BF45406C00A4B2D5
:1051F000B5F5004F28BF44406500ADB2B4F5004F8F
:1052000028BF45406C000231A4B2B5F5004F03EB56
:10521000010528BF4440023594D1881C5FEACC7157
:1052200033D0105C84EA0021480082B2090441F2C4
:10523000210048BF4240510089B2B2F5004F28BF5B
:1052400041404A0092B2B1F5004F28BF42405100A0
:1052500089B2B2F5004F28BF41404A0092B2B1F581
:10526000004F28BF4240510089B2B2F5004F28BF1D
:1052700041404A0092B2B1F5004F28BF4240510070
:105280008CB2B2F5004F28BF44409EF81A00DEE908
:105290000112BEF81C3002FB0010BEF81010DEF840
:1052A000002001FB0300536801A910229847BDF8B4
:1052B0000A10614089B2084318BF0120424205B07C
:1052C000BDE8F0401046704740F22C00C2F20000EA
:1052D000002180F83410816380F84410816480F8E4
:1052E000541081657047000040F22C01C2F20001A9
:1052F00001EB00112C31022888BF002108467047BD
:10530000B0B50C460546FBF78BFE411B0020A142C1
:1053100028BF0120B0BD0000FBF782BE10B540F2EF
:105320002414C2F200042078002808BF10BDFFF743
:10533000F3FF6168401A332800D210BD00202070AE
:105340006060FCF743FD000040F22C00C2F2000058
:105350000078704740F22C00C2F20000007802385A
:10536000B0FA80F04009704710B540F22C04C2F248
:1053700000042078032818BF10BD206942F2107184
:10538000FFF7BEFF00281CBF0020208010BD0000DA
:1053900010B540F22C04C2F200042078022805D196
:1053A0000020A06004F1080010BD00BFFFF7B4FFAB
:1053B000010C41EA102102BA0843FF21CFF6007127
:1053C0000842E26002BF43F21240C7F65600E060B6
:1053D000E068A0600120207004F1080010BD00000A
:1053E0000420704704293CBF0020704710B540F2EC
:1053F0002C04C2F20004217B02785140CA2913D147
:10540000617B42785140FE290ED1A17B82785140C8
:10541000BA2909D1E17BC0784840BE2804D10220D6
:105420002080012010BD00BF60780130C1B2032987
:10543000607007D303202070FFF76EFF206100200B
:1054400010BD00BF0020207010BD000080B540F2EC
:10545000240CC2F2000CCCF8040044F2D430C2F2A6
:105460000000192180F83C1043F60D41C0F6000100
:105470000164222180F8501043F62D21C0F600016E
:105480004165232180F8641043F6BD61C0F6000138
:105490008166272180F8781044F2B961C0F60001D6
:1054A000C167282180F88C1043F2DD21C0F600018D
:1054B000C0F890102A2180F8A01044F2C101C0F673
:1054C0000001C0F8A4102C2180F8B41043F2E1418F
:1054D000C0F60001C0F8B8102E2180F8C81044F6BC
:1054E0009111C0F60001C0F8CC104FF48E71A0F8F5
:1054F000D0102F2180F8DC1043F2F571C0F60001C6
:10550000C0F8E010312180F8F01044F2B951C0F633
:105510000001C0F8F410342180F8041144F2F911AC
:10552000C0F60001C0F808114FF48271A0F80C1108
:10553000352180F8181144F2D931C0F60001C0F8C5
:105540001C114FF486711123A0F82011A0F834111A
:10555000A0F848113E21037543F27D7380F8541181
:1055600044F2A971C0F60003C0F600018361142360
:10557000C0F858113D2180F8283043F2852380F887
:10558000681144F68521C0F60003C0F60001C3622D
:105590001C23C0F86C1185210386A0F880303623C7
:1055A00080F87C1143F2893180F82C3144F60103F4
:1055B000C0F600011022C0F60003C0F880111521CA
:1055C000027043F21142C0F8303137238CF80010DA
:1055D0008721C0F6000280F8403144F6151380F8A8
:1055E000901143F60D1142601E224FF0180EC0F6C6
:1055F0000003C0F6000102818283A0F84420A0F8D5
:105600005820A0F86C20A0F89420A0F8A8E0A0F8FA
:10561000BCE0A0F8E4E0A0F8F820C0F84431A0F81D
:105620005C21A0F87021A0F88421C0F89411A0F8A2
:1056300098E1BDE8804000F04FB9000080B500F06F
:10564000C3F8FFF791FEBDE88040FFF767BE00009A
:10565000002904BF002070472DE9F04F87B00DF1FD
:10566000040C8CE8070090F8008018464FF4017194
:105670009B46FAF792FD00F0DDF840F22400C2F2FA
:105680000000007844F2D431C2F2000100EB800C3B
:10569000A1F1140AA1F13C07A1F128064FEA8C0EF2
:1056A0006FF013021425012824DB01EB0E0414F81B
:1056B000149CC1452AD0AE451CD014F8283C434563
:1056C00028D0032816D314F83C3C434526D050324A
:1056D00096450FD014F8503C5035AAF1500A503975
:1056E000503F503E4345A0F10400DCD101EB8C0457
:1056F00016E000BF039800284FF0000036D17F214C
:105700008BF800108BF80180112152E00AEB8C0419
:1057100006E000BF06EB8C0402E000BF07EB8C0440
:1057200000F082F8217A042828BF042021FA00F032
:10573000C0071FD0607A012802D1FFF70BFE68B3C3
:1057400002998DF81080481E019A18BF501C0590D0
:10575000481EADF81800039862688DF81A0004A876
:10576000594690479BF8020280B1002007B0BDE87F
:10577000F08F00BF039800284FF00000F6D17F2182
:105780008BF800108BF8018013E000BFBBF800021B
:10579000002818BF012007B0BDE8F08F039800284B
:1057A0004FF00000E2D17F218BF800108BF80180D0
:1057B00033218BF802100321ABF800128BF80202A0
:1057C000012007B0BDE8F08FB0B540F21805C2F275
:1057D00000052878012825D040F22C04C2F20004EC
:1057E000606841F28831FFF78BFDD8B10120287045
:1057F000FFF792FD2178606003291CBF0020207014
:105800000020E060C4E90600C4E90800A06284F852
:105810003400A06384F84400A06484F85400A065B8
:105820000120B0BD0020B0BD40F21800C2F200005F
:105830000078704780B5FFF76FFD40F22C01C2F28F
:105840000001486080BD000080B540F21800C2F23F
:10585000000001210170FFF75FFD40F22C01C2F250
:1058600000010A784860032A1CBF0020087000204D
:10587000C860C1E90600C1E90800886281F8340007
:10588000886381F84400886481F85400886580BD8D
:1058900080B540F21801C2F200010870FFF73CFD2C
:1058A00040F22C01C2F200010A784860032A1CBFB2
:1058B000002008700020C860C1E90600C1E90800A6
:1058C000886281F83400886381F84400886481F834
:1058D0005400886580BD000080B540F21800C2F217
:1058E000000001210170FFF717FD40F22C01C2F208
:1058F0000001486000200880C86081F83400886397
:1059000081F84400886481F8540088658870C1E992
:105910000500C1E90700C1E9090080BD40F22C0083
:10592000C2F200001830704740F22C00C2F20000B2
:105930000021C0E90611C0E908118162704700002A
:105940000FB4054B10B503A9044A029800F018F8EB
:1059500010BC5DF814FB0000952800080000002032
:1059600002E008C8121F08C1002AFAD17047704728
:10597000002001E001C1121F002AFBD17047000086
:105980002DE9FF4F8DB00F460546002606E025287D
:105990000BD0DDE90F1290476D1C761C287800288B
:1059A000F5D111B03046BDE8F08F0024A246A146E3
:1059B0000122EC4900E0044315F8013F203B02FAC4
:1059C00003F00842F7D128782A2810D06FF02F0270
:1059D0002878A0F13001092914D80AEB8A0102EBDA
:1059E000410144F0020400EB010A6D1CF0E701CF15
:1059F0005FEA000A03D544F40054CAF1000A44F0F7
:105A000002046D1C28782E2817D115F8010F44F0D8
:105A100004042A280ED06FF02F022878A0F130015C
:105A200009290AD809EB890102EB410100EB0109C0
:105A30006D1CF2E757F8049B6D1C28786C280FD07A
:105A400006DC4C2817D068280DD06A2814D104E051
:105A5000742810D07A280FD10DE044F400140AE025
:105A600044F4801401E044F440146978814202D186
:105A700004F580146D1C6D1C2A786E2A1FD00CDC76
:105A8000632A31D004DC002A8BD0582A11D1A3E03C
:105A9000642A68D0692A0CD165E0732A2ED004DC10
:105AA0006F2A73D0702A04D19BE0752A6FD0782AB0
:105AB0006ED01046DDE90F129047761C50E1C4F31A
:105AC0000250022806D0032809D0042801CF09D0AB
:105AD000066045E101CFF117C0E9006140E101CF67
