:020000040800F2
:10000000E02E002045010008E91B0008C11A000885
:10001000E51B0008850200089D1D00080000000087
:10002000000000000000000000000000F11B0008BC
:100030003D03000800000000ED1B0008F51B000850
:100040005F0100085F0100085F0100085F01000810
:100050005F0100085F0100085F0100085F01000800
:100060005F0100085F0100085F0100085F010008F0
:100070005F0100085F0100085F0100085F010008E0
:100080005F0100085F0100085F0100085F010008D0
:10009000911D00085F0100085F0100085F01000872
:1000A0005F0100085F0100085F0100085F010008B0
:1000B0005F0100085F0100085F0100085F010008A0
:1000C0005F0100085F0100085F0100085F01000890
:1000D0005F0100085F0100085F0100085F01000880
:1000E0005F0100085F0100085F0100085F01000870
:1000F0005F0100085F0100085F0100085F01000860
:100100005F0100085F0100085F0100085F0100084F
:100110005F0100085F0100085F0100085F0100083F
:100120005F0100085F0100085F0100085F0100082F
:10013000DFF80CD000F06EF800480047212F0008CF
:10014000E02E00200648804706480047FEE7FEE70D
:10015000FEE7FEE7FEE7FEE7FEE7FEE7FEE7FEE777
:10016000F91B00083101000840EA01039B0703D096
:1001700009E008C9121F08C0042AFAD203E011F8E6
:10018000013B00F8013B521EF9D27047D2B201E0A8
:1001900000F8012B491EFBD270470022F6E710B58C
:1001A00013460A4604461946FFF7F0FF204610BDE5
:1001B0002DE9F05F0546002092469B46884606469C
:1001C000814640241BE0284641464746224600F02F
:1001D00048F853465A46C01A914110D31146184662
:1001E000224600F02FF82D1A67EB01084F462246F1
:1001F0000120002100F026F817EB00094E41201ED7
:10020000A4F10104DFDC484631462A464346BDE8F6
:10021000F09F00001CB50948009009480190054670
:10022000009C06E0E06840F0010394E8070098476E
:100230001034AC42F6D3FFF77FFF0000145C0008D7
:10024000345C0008202A04DB203A00FA02F1002086
:1002500070479140C2F1200320FA03F31943904004
:100260007047202A04DB203A21FA02F0002170476F
:1002700021FA02F3D040C2F120029140084319460E
:1002800070470000FEE7000010B58AB0002006901D
:10029000CDE90400CDE90200CDE90000012040F2E3
:1002A000F804CDE907000E20C2F200040990694667
:1002B000204600F019F9204600F052FC20460221A9
:1002C00000F0A8F80AB010BD70B588B00C46002147
:1002D000CDE9020140F2F800C2F20000CDE90411BC
:1002E000CDE9062100F010FA80B943F6B04640F29D
:1002F000F805CFF6FF76C2F2000500BF013605D241
:10030000284600BF00F000FA0028F7D040F2F800BD
:10031000C2F2000000F0F8F948B140F2F800C2F271
:10032000000002A901AB224600F08CF810B10220B7
:1003300008B070BD002008B070BD0000704700001C
:10034000EFF3108072B600BFFEE7000070B542F216
:100350000C060446C4F2020600F05EFE3168C907CE
:100360001CD13068800644BF202030603068C00651
:1003700007D43069C00704D1306840075CBF002053
:1003800070BD3068C00640F26810C2F2000021D48F
:1003900000213268520725D42AE000BFC4B10546C7
:1003A000601C10D13068C007DBD03068C0071CBFAC
:1003B00030685FEAC070D4D03068C007F2D1D0E7AF
:1003C0003068C007CDD000F027FE401BA042F7D90F
:1003D000032070BDC16941F00201C1611021326882
:1003E000520705D5C26941F0040142F00102C26121
:1003F0003269D20702D10120316070BDC26942F07A
:100400000402C261306920F00100306101203160D6
:1004100070BD000090F82020013A012A08D8006839
:1004200000F114020020136819431160704700BFE7
:1004300000F1240201204FF4802113681943116058
:100440007047000010B590F820E0D0F800C0AEF181
:10045000010EBEF1010FDCF808E011D81EF0E05FDC
:1004600018D0CEF301640120A04018608B68DBB186
:10047000D1F804E0C86840EACE0040EA030E17E075
:1004800000F1240301204FF480211A681143196000
:1004900010BD00BF00F1240301204FF400111A68C1
:1004A0001143196010BD00BF0868CB6843EA405E85
:1004B0000CF5C07000EB0413240140F804E00C6953
:1004C000184640F8044F097D012903D1016841F421
:1004D0008071016050680121D86010689860002028
:1004E0001A681143196010BD026890F82030013B72
:1004F000012B29D8B0B5D2F80002012340F0010049
:10050000C2F80002D1F814E0CC690EF01F0003FA23
:1005100000F0D2F81C326FEA000C8343012CC2F8C1
:100520001C3217D06CBBD2F80C3203EA0C03C2F8B1
:100530000C32CB688C8844EA034302EBCE04C4F847
:1005400040320B4615E000BF416A41F48021416210
:1005500001207047D2F80C320343C2F80C320B680A
:100560008C8844EA034302EBCE04C4F8403201F124
:100570000C038D681B8802EBCE0443EA0543C4F8E4
:100580004432D2F804328C6943EA0005D1F810E015
:10059000096A002C08BF03EA0C05C2F80452D2F81D
:1005A0001432BEF1000F43EA000408BF03EA0C0452
:1005B0000129C2F8144204D1D2F81C120843C2F82F
:1005C0001C02D2F8000220F00100C2F80002002054
:1005D000B0BD000070470000B0B590F82040013C6D
:1005E000012C7DD8D0F800C000290CBFDCF80C40ED
:1005F000DCF81040A4077DD00CF5D8754FEA011C3B
:1006000055F80C4014F00404946055F80CE005EB28
:10061000011C19BF4FEADE0555604FEA5E551560B3
:10062000DCF80050E64605F00205D5605EF8044FA0
:1006300024075ABFDEF8004004F00F0408241461B8
:10064000DEF800400029C4F307249461DEF800506E
:100650004FEA15455561DCF808201A70026802EB74
:100660000112D2F8B8214FEA12225A70026802EB46
:100670000112D2F8B8214FEA12429A70026802EBD6
:100680000112D2F8B8214FEA1262DA70026802EB66
:100690000112D2F8BC211A71026802EB0112D2F8E1
:1006A000BC214FEA12225A71026802EB0112D2F801
:1006B000BC214FEA12429A71026802EB0112D2F891
:1006C000BC214FEA1262DA7100680CBF00F10C0124
:1006D00000F11001002020220B681A430A60B0BD0F
:1006E00000F1240101204FF480220B681A430A60B4
:1006F000B0BD00BF00F1240101204FF400120B68CF
:100700001A430A60B0BD000090F820100139012999
:1007100084BF002070470068816882688068C1F3E8
:100720008061C2F3C0621144C0F300700844704796
:100730002DE9F04F81B0044600684669D0F8049076
:100740008768D0F80CB0D0F810A0D0F81880F10766
:1007500004D1002530071DD424E000BFF90710D0D4
:100760000121BA07816009D4780700F1AF8038070A
:1007700000F1B680204600F021FA02E0204600F0A9
:100780001FFA0025F80500F18780F80300F1B18019
:10079000300707D51BF0100004D0206845F4007521
:1007A0001021C160700708D51BF0080005D0206833
:1007B0000821C160204600F0ADF9B00706D52068D9
:1007C000C068800702D0204600F0A6F9700607D561
:1007D0001AF0100004D0206845F4806510210161F2
:1007E000B00608D51AF0080005D02068082101617C
:1007F000204600F0AFF9F00606D5206800698007B2
:1008000002D0204600F0A8F9B00308D519F0100076
:1008100005D0206810214160204600F09FF9F003C8
:1008200008D519F0080005D020680821416020464D
:1008300000F0D0F9300440F19B805FEA497040F14C
:10084000948006F4807008EA102028435FEA8871DB
:10085000014648BF41F00201B20558BF01465FEAB8
:1008600048700D4648BF45F00405700558BF0D4659
:10087000300540F17A8018F0700000F07680103872
:10088000000905286CD8DFE800F003655D6159694F
:1008900045F0080564E000BF20684FF48071BA0598
:1008A00081600BD4780515D438051DD4204600F09E
:1008B00089F9F8037FF56CAF1BE000BF204600F01C
:1008C00083F9F8037FF564AF13E000BF4FF40065D0
:1008D00058E700BF05F50055F8037FF559AF08E06C
:1008E0004FF480554EE700BF05F58045F8037FF5CE
:1008F0004FAF20684FF48031BA0381600AD4780387
:1009000010D4380314D4204600F060F930073FF5C6
:1009100041AF47E7204600F05BF930073FF53AAFBB
:1009200040E700BF05F5004530073FF533AF39E735
:1009300005F5803530073FF52DAF33E745F08005ED
:100940000EE000BF45F020050AE000BF45F040057D
:1009500006E000BF45F0100502E000BF45F48075D9
:100960002068816921F07001816120680421416063
:1009700055B1606A40EA05012046616201B0BDE8F8
:10098000F04FFFF727BE00BF01B0BDE8F08F0000B9
:10099000002804BF01207047B0B5044690F820003D
:1009A00010B9204600F06EF82068016841F001019E
:1009B000016000F031FB054620684168C90705D198
:1009C00000F02AFB401B0B28F6D310E0016821F051
:1009D0000201016000F020FB054600BF206841686D
:1009E00089070DD500F018FB401B0B28F6D3606A71
:1009F000052140F400306062012084F82010B0BD71
:100A0000217E0268012922F0800208BF8032026044
:100A1000617E0268012922F0400208BF4032026074
:100A2000A17E0268012922F0200208BF2032026064
:100A3000E17E0268012922F0100218BF1032026024
:100A4000217F0268012922F0080208BF08320260F3
:100A5000617F0268012922F0040208BF04320260AB
:100A6000D4E901C2D4E9033561691A432A43114329
:100A7000ACF101021143C16100200121606284F8E0
:100A80002010B0BDB0B586B040F60004C4F2010439
:100A90000068A4F52442002190420591CDE903119C
:100AA000029101D006B0B0BD41F21800C4F20200BC
:100AB000426802AD42F000724260426802F0007289
:100AC0000192019A026842F004020260006800F09C
:100AD0000400019001984FF40060CDE902010491F7
:100AE0002046294600F09EF94FF4805002900220E3
:100AF0000390032005902046294600F093F9142026
:100B00000021002200F008FB142000F0F3FA06B0E8
:100B1000B0BD00007047000080B58CB001A94B1D2E
:100B200005AA0021FFF758FD10B10CB080BD00BF31
:100B3000059809990190A0F2DF7001288DF808103E
:100B4000F3D840F68420C2F2000001A901F0B0FF02
:100B50000CB080BD70470000704700007047000077
:100B6000B0B5044690F8200001281DD1022084F879
:100B700020002068016821F00101016000F04CFABA
:100B8000054600BF20684068C00713D000F044FA53
:100B9000401B0B28F6D3606A40F4003060620520E9
:100BA00084F820000120B0BD606A40F4002060623B
:100BB0000120B0BD00206062B0BD000070470000A1
:100BC0007047000070470000704700007047000049
:100BD00070470000704700002DE9F04381B040F2FB
:100BE0006815C2F200052A7E012A03D1022001B055
:100BF000BDE8F08304460120266828764CF2503088
:100C00008846FFF7A3FB022E1CD100284ED10020FE
:100C100042F21004E861C4F20204206840F00400CB
:100C20002060206840F0400020604CF25030FFF718
:100C30008DFB216821F0040121600021297601B09B
:100C4000BDE8F08390BB4FF0FF30C8F80000D4E956
:100C50000270414607EBC020874227D242F21006BD
:100C6000C4F202064FF00009C5F81C90306840F04D
:100C7000020030607760306840F0400030604CF235
:100C80005030FFF763FB316821F00201316098B901
:100C9000D4E9020107F5006700EBC1208742E3D3E6
:100CA00000200021297601B0BDE8F0830120002159
:100CB000297601B0BDE8F083C8F8007000212976DC
:100CC00001B0BDE8F083000042F21001C4F202015D
:100CD000086840F0800200200A6070472DE9F04368
:100CE00081B040F26817C2F2000716463A7E012A28
:100CF00004D1022001B0BDE8F08300BF0546012009
:100D000038764CF250300C469846FFF71FFB28B15E
:100D10000021397601B0BDE8F08300BF42F210092E
:100D20000020C4F20209F861D9F8000040F0010087
:100D3000C9F800004CF250302680FFF707FBD9F8C5
:100D40000010002821F00101C9F8001018BF00466A
:100D5000DED1012DDCD00020F861D9F80000310C83
:100D600040F00100C9F800004CF250306180FFF7FC
:100D7000EDFAD9F80010002821F00101C9F800109F
:100D8000C6D1E81E10F1030F4FF00000C0D8F86183
:100D9000D9F8000040F00100C9F800004CF25030D2
:100DA000A4F80480FFF7D2FAD9F80010002821F047
:100DB0000101C9F80010ABD10020F861D9F800009A
:100DC0004FEA184140F00100C9F800004CF25030E1
:100DD000E180FFF7BBFAD9F80010002821F00101EB
:100DE000C9F8001018BF00460021397601B0BDE8EF
:100DF000F083000042F20400C4F20200C168090658
:100E00005CBF0020704740F22311C4F267510160BB
:100E100048F6AB11CCF6EF510160C068C0B2C00912
:100E2000704700002DE9F04F82B00E68002E00F0F0
:100E3000E980A0F1804241F6004540F20043A2F56E
:100E40008432C4F201050624C4F201034FEAB2273A
:100E5000A84208BF05244FF0000E4FF001080F25EF
:100E60004FF0000A4FF0000B052F38BF4FEAB224B5
:100E7000009408E00E680AF1010A36FA0AF20EF14F
:100E8000040E00F0BF8008FA0AFC16EA0C09F1D043
:100E90004E684FF6FF72C1F21002964212DC122E1B
:100EA00056D8DFE806F0350B4D4955555555555583
:100EB0005555555555555545510000BFD1F80CB005
:100EC00046E000BF4FF6FF72C1F2210296420FDCEE
:100ED0000022C1F2110296421AD00022C1F212027F
:100EE000964215D00022C1F22102964210D02FE086
:100EF0000022C1F2220296420AD00022C1F231023F
:100F0000964205D00022C1F23202964220D100BFA3
:100F10008A684AB1012A14BFC0F814C0C0F810C0D2
:100F20004FF0080B14E000BF4FF0040B10E000BFBF
:100F3000CA6802F1040B0BE04FF0000B08E000BFA1
:100F4000CA6802F1080B03E0CA6802F10C0B00BF8B
:100F500002467446B9F5807F24BF0432203C1668EF
:100F600005FA04F726EA07070BFA04F63743176079
:100F7000CA79D2067FF57EAF41F21807C4F20207A4
:100F80003A684FF6084542F001023A603A68CFF6F7
:100F9000FF7502F001020192019A2AF003021A443D
:100FA0000F2457590EF00C06B440A743009C04FAD6
:100FB00006F6374357514E6840F20C44F2029A68E5
:100FC00054BF22EA090242EA0902C4F201049A600B
:100FD0002268B70254BF22EA090242EA09022260EB
:100FE0005A68B70354BF22EA090242EA09025A606A
:100FF0000F251A68F70354BF22EA090242EA0902E0
:101000001A6037E702B0BDE8F08F0000002A08BF81
:10101000090401617047000041F6D860C2F2000087
:101020000068704740F2040041F6D861C2F2000047
:10103000C2F2000100780A6810440860704700009E
:1010400080B542F20000C4F20200016841F01001D4
:101050000160032000F08CF80F2000F005F800F08C
:1010600027F8002080BD000070B540F20406C2F2EF
:10107000000640F20C013278C2F200014FF47A739C
:101080000968B3FBF2F20446B1FBF2F1084600F046
:1010900085FB0F2C4FF0010508D838B94FF0FF3011
:1010A00021460022002500F037F87460284670BD04
:1010B00082B041F21800C4F202000168022241F03D
:1010C00001010160016801F001010191019941688C
:1010D00041F080514160406800F0805000900098DD
:1010E0000420C4F20100016862F31A61016002B0D9
:1010F00070470000002848BF704700F01F01012220
:1011000002FA01F11C2202EAD0004EF20012CEF2E5
:10111000000281507047000010B54EF60C5CCEF214
:10112000000CDCF80030C3F3022E8EF00704042C10
:1011300028BF0424BEF103034FF0FF3E0EFA04F46F
:1011400038BF0023A14399400EFA03F39A43114399
:1011500000F00F0200F160430901043A03F5644313
:101160006244002848BF02F10C03197010BD000052
:101170004EF60C51CEF200010A684FF6FF031A40FA
:1011800060F30A2242F0806040F0FD700860704712
:10119000002804BF012070472DE9F04381B042F2DE
:1011A0000008C4F202080446D8F800000D4600F01A
:1011B000070088420CD2D8F8000020F0070028432E
:1011C000C8F80000D8F8000000F00700A8426CD171
:1011D000206841F204098107C4F2020917D54107CA
:1011E00005D5D9F8001041F4E061C9F800100107F5
:1011F00005D5D9F8001041F46051C9F80010D9F8AC
:101200000010A26821F0F0011143C9F80010C007D6
:1012100042D1D8F8000000F00700A8420CD9D8F855
:10122000000020F007002843C8F80000D8F80000AC
:1012300000F00700A84238D12068410707D5D9F847
:101240000010E26821F4E0611143C9F800100007C2
:1012500008D5D9F80000216920F4605040EAC100A7
:10126000C9F80000D9F8002002F00C00082841F26B
:101270000020C0F27A004DD145F60633C2F3834117
:10128000C0F60003595CD20338D440F60010C0F217
:101290003D0048433EE000BF606859F8041C022846
:1012A00008D0012826D1890306D4012001B0BDE869
:1012B000F08300BF8901F8D5D9F8001021F00301AF
:1012C0000843C9F80000FFF7A7FE064641F2883739
:1012D000D9F80000616800F00C00B0EB810F98D0E5
:1012E000FFF79AFE801BB842F2D9032001B0BDE897
:1012F000F08300BF8907D8D5DEE700BFD9F800200A
:1013000045F60433C2F34042C0F600039A5C4843FA
:10131000B0FBF2F0D9F8001045F6EC22C1F303114E
:10132000C0F60002515C40F20C0220FA01F140F2DA
:101330000800C2F200000068C2F200021160FFF76C
:1013400093FE002001B0BDE8F083000040F20C00E5
:1013500041F20401C2F20000C4F20201006809680F
:1013600045F6FC22C1F30221C0F60002515CC840E0
:101370007047000040F20C0041F20401C2F200008C
:10138000C4F202010068096845F6FC22C1F3C221DB
:10139000C0F60002515CC84070470000002804BF3E
:1013A000012070472DE9F04182B00446007841F2F7
:1013B0000006C007C4F202060CD0706800F00C00F2
:1013C000042840F081803068800303D560680028DD
:1013D00000F04681207880071BD5706810F00C0F54
:1013E00009D0706800F00C00082840F08780706811
:1013F000C00300F183803068800703D5206901288D
:1014000040F02E813068616920F0F80040EAC100A8
:1014100030602078000713D4207840072CD4E56989
:10142000002D00F01881706800F00C00082840F0D2
:10143000A780012D40F00481012002B0BDE8F081B9
:10144000A069002800F084800020C4F2422001211D
:10145000C0F88014FFF7E0FD054600BF706A800702
:1014600000F1B280FFF7D8FD401B0228F6D9032017
:1014700002B0BDE8F08100BFF0695FEAC00808D49F
:10148000F06940F08050F061F06900F08050009009
:10149000009847F20007C4F200073868C00549D435
:1014A000386840F480703860FFF7B6FD054600BF2D
:1014B0003868C0053ED4FFF7AFFD401B6428F7D95C
:1014C000032002B0BDE8F081706800F00C0008282D
:1014D00003D17068C0033FF576AF616830680029BA
:1014E00000F00C81B1F5A02F00F00081B1F5803F34
:1014F00040F01A8140F480301CE100BF20690028D0
:1015000040F20000C4F2422000F088800121016016
:10151000FFF782FD054600BF306880073FF572AFD8
:10152000FFF77AFD401B0228F6D9032002B0BDE880
:10153000F08100BFE168306A002900F09D80052934
:1015400000F09280012940F0AF8040F00100B1E04E
:101550000020C4F242200021C0F88014FFF75CFD97
:10156000054600BF706A80077FF556AFFFF754FD50
:10157000401B0228F6D9032002B0BDE8F08100BF6D
:101580000027C4F2422700203866FFF745FD022DF0
:1015900005460DD13068800140F1DE80FFF73CFD4B
:1015A000401B02284FF00300F4D902B0BDE8F081DF
:1015B000306880014FD5FFF72FFD401B02284FF008
:1015C0000300F5D9F1E700BF40F20C00C2F20000C1
:1015D000006844F6D351C1F26201A0FB0101480A40
:1015E000019000BF00BF0198411E002801913FF407
:1015F00013AF00BF0198411E002801913FF40CAFCA
:1016000000BF0198411E002801913FF405AF00BFC3
:101610000198411E00280191E4D1FDE600210160FE
:10162000FFF7FAFC054600BF306880077FF5F1AE92
:10163000FFF7F2FC401B02284FF00300F4D9B4E797
:101640007068216A00F480328A4209D1616A00F42C
:101650007010884204D1002002B0BDE8F08100BFC4
:10166000012002B0BDE8F08140F004003062306A31
:1016700040F001001EE000BF20F001003062306A3F
:1016800020F004003062FFF7C7FC054641F28837BE
:10169000306A800720D5FFF7BFFC401BB8424FF0EF
:1016A0000300F5D981E700BF20F001003062306A05
:1016B00020F004003062FFF7AFFC054641F28837A6
:1016C000306A800708D4FFF7A7FC401BB842F7D95F
:1016D000032002B0BDE8F081B8F1000F3FF59FAEE6
:1016E000F06920F08050F06199E600BF40F480205E
:1016F0003060306840F480301CE000BF20F480305F
:101700003060306820F480203060FFF785FC0546AB
:10171000306880037FF55EAEFFF77EFC401B6428D7
:101720004FF00300F4D940E720F480303060306897
:1017300020F480203060FFF76FFC0546306880039E
:101740003FF548AEFFF768FC401B6428F6D903203C
:1017500002B0BDE8F08100BF206AB0F5803F05D13E
:101760007168A26821F40031114371607168626A86
:1017700021F4741111430843706001203866FFF7AB
:101780004BFC0446306880013FF565AFFFF744FC31
:10179000001B02284FF00300F4D906E7411E002089
:1017A000B0EB116F1CBF012070474EF21002CEF259
:1017B000000251604EF62351CEF20001F0230B706F
:1017C0000721906011607047002804BF0120704716
:1017D00010B5044690F8410028B9002084F8400074
:1017E000204600F063F8242084F841002068D4E902
:1017F0000212C36823F40053C360036923F4405307
:101800001A430261D4E904231143C268194341F227
:101810000C639A431143C1604169A26921F440718C
:10182000114343F60002C4F201029042416103D029
:10183000FFF78CFD02E000BFFFF79CFDD4E9002319
:10184000192148439900B0FBF1F048F21F5CC5F242
:10185000EB1CA0FB0C314FF69C734909C0F6FF73DB
:1018600001FB0300322303EB0010A0FB0C03F0206C
:1018700000EA531000EB0110C3F3431108449060D9
:101880001069202120F490401061506920F02A0056
:101890005061D06840F40050D0600020606484F84B
:1018A000411084F84210606310BD000070B586B02E
:1018B00040F60004C4F20104006804F5405100261B
:1018C00088420596CDE90366029601D006B070BD48
:1018D00041F21800C4F20200016802AD41F48041F7
:1018E0000160016801F4804101910199016841F0B2
:1018F000040101600068294600F00400019001988D
:101900004FF40070029002200390032005902046BF
:10191000FFF788FA4FF48060CDE902062046294699
:101920000496FFF77FFA06B070BD00002DE9F04382
:1019300081B0044690F84100202809D100294FF0D9
:10194000010018BF002A07D101B0BDE8F08300BF35
:10195000022001B0BDE8F0830020606421201D4614
:101960000E4684F841001746FFF756FBA784E7842C
:10197000A1688146B1F5805F02D1206900285DD061
:1019800037460020E28C2168002A5DD06A1C24D0F2
:10199000002D4AD0804600BF0868000608D4FFF733
:1019A0003BFBA0EB0900A8427AD82168C868F3E79E
:1019B00017B117F8010B04E038F8020B00276FF39A
:1019C0005F204860E08C0138E084E08C0028E3D19F
:1019D0003AE000BF0A68120609D40A68120606D463
:1019E0000A6812065CBF0A685FEA0262F2D51FB19C
:1019F00017F8012B05E000BF30F8022B00276FF32A
:101A00005F224A60E28C013AE284E28C002AE4D14F
:101A10001AE000BF30F8022B00276FF35F224A6004
:101A2000E28C013AE284E28C72B10A68120635D582
:101A3000002FEFD017F8012BF1E700BF0027304649
:101A4000E28C2168002AA1D1086840061ED42DB37B
:101A5000681C14D1086840062AD40868400627D4B8
:101A60000868400624D4086840064FF00000F1D50D
:101A70000DE000BF2068C1680068400618D4FFF779
:101A8000CBFAA0EB0900A842F4D909E000202021FC
:101A900084F8411001B0BDE8F08300BFFFF7BCFA45
:101AA0000320202184F8411001B0BDE8F08300BF7D
:101AB0000020202184F8411001B0BDE8F08300002F
:101AC000FEE7000010B540F2F80046F20041C2F215
:101AD0000000C4F20001092200234FF0807480E866
:101AE0000E0000F10C014FF4802C4FF4801E81E8B1
:101AF000085084618383FEF74BFF002808BF10BDA8
:101B0000BDE81040FEF71CBC2DE9F04385B0002075
:101B1000CDE90300CDE9010041F21800C4F2020052
:101B2000016840F6004941F0400101600168C4F2DB
:101B3000010901F0400100910099016809F5406533
:101B400041F0040101600168012201F004010091EB
:101B5000009901684FF0200841F008010160006819
:101B6000202100F008000090009828460127FFF788
:101B70004DFA484620210122FFF748FA01AE03241E
:101B800028463146CDE9018703970494FFF74AF9C7
:101B900048463146CDE90187CDE90374FFF742F9A4
:101BA00005B0BDE8F083000080B540F2201043F698
:101BB0000001C2F20000C4F2010100234FF00C0C3E
:101BC0004FF4E13280E80E00C0E90333C0E905C3F9
:101BD000C361FFF7F9FD002808BF80BDBDE8804064
:101BE000FEF7AEBBFEE70000FEE700007047000016
:101BF00070470000FFF716BA70470000ADF5047D8E
:101C000040F68424C2F2000442F609730025C0F6AF
:101C1000000320464FF4FC614FF4FD62009500F094
:101C20002DFF00F005FA3EA14FF287101722002386
:101C3000009500F0C7F940A14FF295101222002341
:101C4000009500F0BFF941A14FF28C100C22002347
:101C5000009500F0B7F945F61830C0F6000003F023
:101C60006BFA45F658390DF20E2B3CA6C0F600096A
:101C70000FF2F8080DF10A070FF2FC0A02E000BFAC
:101C800003F04AFB204601F005F8204601F0A2F8D7
:101C90000028F5D02046594601F08EF80178054617
:101CA000304603F0B9FCBDF80E0201281AD9697854
:101CB000484603F0B1FCBDF80E1203290DD3A978F4
:101CC000484603F0A9FCBDF80E12042905D3E978B3
:101CD000484603F0A1FCBDF80E12042902D9404683
:101CE00003F09AFC0A2003F0E9FEBDF80E12284624
:101CF00000223B4603F01AFB0546204601F064F83B
:101D0000002DBDD09DF80A10BDF80A22504603F000
:101D100083FCBDF80A222046394601F06DF8AFE792
:101D200073746D3332663130332D636865636B7065
:101D30006F696E742D346200302E312E302D6C7828
:101D4000792D6F7665722D756473000074722D7332
:101D5000746D333266313033000000005544532037
:101D60007265713A202530327800000020E280A6AA
:101D70002825752042290000554453207273703A7B
:101D80002025303278202825752042290A000000BD
:101D900040F2F800C2F20000FEF7CABCFEE7000005
:101DA0004EF60C50BFF34F8FCEF2000001680422B4
:101DB00001F4E061C0F2FA5211430160BFF34F8FAA
:101DC00000BF00BF00BF00BFFAE7000040F28C1068
:101DD000C2F20000C17C002908BF704790F82710AC
:101DE000002904BF1430704790F83B10002904BF4D
:101DF0002830704790F84F10002904BF3C307047DE
:101E000090F86310002904BF5030704790F87710A5
:101E1000002904BF6430704790F88B10002904BF7C
:101E20007830704790F89F100022002908BF00F119
:101E30008C0210467047000040F28C12C2F2000281
:101E4000D17C29B111888142114601D108467047E1
:101E5000114631F814CFCB7C0BB18445F6D0114636
:101E600031F828CFCB7C0BB18445EFD0114631F847
:101E70003CCFCB7C0BB18445E8D0114631F850CF34
:101E8000CB7C0BB18445E1D0114631F864CFCB7CDB
:101E90000BB18445DAD0114631F878CFCB7C0BB149
:101EA0008445D3D032F88C1FD37C814218BF0022E6
:101EB000002B08BF1A461146084670472DE9F04F1F
:101EC00081B040F28814C2F200048A46217840F2C0
:101ED0008C179B4690468146C2F2000731B1F87CD0
:101EE00068B138883C4648453DD008E040F28C1047
:101EF000C2F20000A021FEF750F9012020703C46FC
:101F000034F8140FE17C09B148452CD03C4634F834
:101F1000280FE17C09B1484525D03C4634F83C0FF8
:101F2000E17C09B148451ED03C4634F8500FE17CB5
:101F300009B1484517D03C4634F8640FE17C09B13B
:101F4000484510D03C4634F8780FE17C09B148454B
:101F500009D037F88C1FF87C00284FF000002DD0F6
:101F600049453C462AD1A07C20B30026002700BF6B
:101F700004EB8605688800F06FF8B8B129796A79B2
:101F80000139C9B290F822308D189D420ED8FBB2AB
:101F90009F185F450AD853440844811C1846FEF731
:101FA000E3F8A07C01368642E2D304E0002001B0D1
:101FB000BDE8F08F0027012088F8007001B0BDE86F
:101FC000F08F00002DE9F04F81B040F22C27C2F2D3
:101FD000000798463B78272B26D80546581C40F228
:101FE0002E2A3870C2F2000A2A2003FB00A703FB46
:101FF00000F9BE1C30468B4628211446FEF7CDF86A
:102000002AF80950202C28BF202430465946224661
:1020100087F82240FEF7A8F80A9887F8238087F807
:102020002400002087F8250001B0BDE8F08F0000F3
:1020300080B540F22C20C2F200000021017002F0B5
:10204000E1FF4BF6EF61CDF6AD61484040F2100183
:10205000C2F20001086080BD40F22C21C2F20001F2
:102060000978002904BF0020704770B52A22514327
:1020700040F22E24A1F17E0CA1F12A03A1F1540E0D
:102080000022C2F20004A55A854217D0934212D012
:10209000A5186E8D864213D096450CD0B5F85460C5
:1020A000864211D0944506D0B5F87E6086420FD0A6
:1020B000A8329142E7D1002070BD00BFA01870BDCA
:1020C00005F12A0070BD00BF05F1540070BD00BFCE
:1020D00005F17E0070BD00002DE9F04381B040F2B3
:1020E0002C23C2F200031B78002B4DD040F22E258A
:1020F000C2F200052F88874220D10124202A4FF008
:10210000000315D895F8237097B18046A81C89461E
:102110001746FEF729F83E4685F8227001F0B6F81A
:1021200028B103681BB1404649463246984701230F
:1021300004EA030001B0BDE8F08300BF5435C3F1E9
:10214000000C02270CEB0704012C1DD035F82A6C7B
:1021500086421FD0C4B12E88864223D0661C13D07D
:102160006E8D864224D0A61C0ED0B5F8546004377C
:10217000864205F1A805E5D1023F00249F4238BF01
:102180000124543DBAE700BF002404EA030001B073
:10219000BDE8F083013F00242A3D9F4238BF01245F
:1021A000ACE700BF00249F4238BF0124A6E700BF70
:1021B000013700249F4238BF01242A359EE70000E2
:1021C000F0B581B0044601F061F840F6BE01C2F2FC
:1021D00000010D786FF07F418C4240F0D180002DDE
:1021E00000F04B83002800F00782826840F6C004AC
:1021F000C2F200040021002A217100F0038321684B
:1022000006460846002100279047012D00F035833F
:10221000B268304684F820701AB1E0690021904716
:102220003046022D00F029838268002184F83C109A
:1022300012B1A06B90473046032D00F01E838268D8
:10224000002184F8581012B1606D90473046042D7B
:1022500000F013838268002184F8741012B1206F9B
:1022600090473046052D00F008838268002184F8ED
:1022700090101AB1D4F88C0090473046062D00F02B
:10228000FC828268002184F8AC101AB1D4F8A8004E
:1022900090473046072D00F0F0828268002184F8D4
:1022A000C8101AB1D4F8C40090473046082D00F089
:1022B000E4828268002184F8E4101AB1D4F8E000C6
:1022C00090473046092D00F0D8828268002184F8BA
:1022D00000111AB1D4F8FC00904730460A2D00F0E6
:1022E000CC828268002084F81C011AB1D4F818014D
:1022F000002190470B2D00F0C082B26830460020CC
:1023000084F838011AB1D4F83401002190470C2D1B
:1023100000F0B382B2683046002084F854011AB14C
:10232000D4F85001002190470D2D00F0A682B2682C
:102330003046002084F870011AB1D4F86C010021F5
:1023400090470E2D00F09982B2683046002084F844
:102350008C011AB1D4F88801002190470F2D00F0AC
:102360008C82B2680020002A84F8A80100F08582DF
:10237000D4F8A401002101B0BDE8F040104700BF2F
:10238000002D00F07A8240F6C006C2F200063168E5
:10239000002881EA040200F0838112F47F0F08D143
:1023A00082680023337122B1074608460021904716
:1023B0003846012D00F06182F16981EA040212F4CD
:1023C0007F0F09D18268002386F8203022B10746AA
:1023D0000846002190473846022D00F04E82B16B2E
:1023E00081EA040212F47F0F09D18268002386F883
:1023F0003C3022B107460846002190473846032D5D
:1024000000F03B82716D81EA040212F47F0F09D162
:102410008268002386F8583022B10746084600211A
:1024200090473846042D00F02882316F81EA04027B
:1024300012F47F0F09D18268002386F8743022B12C
:1024400007460846002190473846052D00F01582C2
:10245000D6F88C1081EA040212F47F0F09D1826849
:10246000002386F8903022B10746084600219047A5
:102470003846062D00F00182D6F8A81081EA040241
:1024800012F47F0F09D18268002386F8AC3022B1A4
:1024900007460846002190473846072D00F0ED8199
:1024A000D6F8C41081EA040212F47F0F09D18268C1
:1024B000002386F8C83022B107460846002190471D
:1024C0003846082D00F0D981D6F8E01081EA0402E0
:1024D00012F47F0F09D18268002386F8E43022B11C
:1024E00007460846002190473846092D00F0C5816F
:1024F000D6F8FC1081EA040212F47F0F09D1826839
:10250000002386F8003122B1074608460021904793
:1025100038460A2D00F0B181D6F8181181EA04027C
:1025200012F47F0F09D18268002386F81C3122B192
:10253000074608460021904738460B2D00F09D8144
:10254000D6F8341181EA040212F47F0F09D18268AF
:10255000002386F8383122B107460846002190470B
:1025600038460C2D00F089810746D6F8500180EAE4
:10257000040111F47F0F06D1BA680021002A86F801
:10258000541118BF90470D2D00F07781D6F86C01DB
:1025900080EA040111F47F0F06D1BA680021002AF5
:1025A00086F8701118BF90470E2D00F06681D6F89E
:1025B000880180EA040111F47F0F06D1BA68002176
:1025C000002A86F88C1118BF90470F2D00F0558116
:1025D000D6F8A40180EA040111F47F0F40F04D8188
:1025E000BA680021002A86F8A81100F0468101B0DF
:1025F000BDE8F040104700BF40F6C000C2F2000046
:102600000021012D017100F03881022D80F8201089
:1026100000F03381032D80F83C1000F02E81042D52
:1026200080F8581000F02981052D80F8741000F012
:102630002481062D80F8901000F01F81072D80F86E
:10264000AC1000F01A81082D80F8C81000F0158138
:10265000092D80F8E41000F010810A2D80F8001197
:1026600000F00B810B2D80F81C1100F006810C2D61
:1026700080F8381100F001810D2D80F8541100F020
:10268000FC800E2D80F8701100F0F7800F2D80F87F
:102690008C1100F0F28080F8A81101B0F0BD00BFED
:1026A00012F47F0F04BF00203071012D00F0E5808F
:1026B000F069604010F47F0F04BF002086F820000E
:1026C000022D00F0DA80B06B604010F47F0F04BF81
:1026D000002086F83C00032D00F0CF80706D604034
:1026E00010F47F0F04BF002086F85800042D00F07E
:1026F000C480306F604010F47F0F04BF002086F864
:102700007400052D00F0B980D6F88C00604010F4FC
:102710007F0F04BF002086F89000062D00F0AD80EA
:10272000D6F8A800604010F47F0F04BF002086F8A0
:10273000AC00072D00F0A180D6F8C400604010F472
:102740007F0F04BF002086F8C800082D00F0958098
:10275000D6F8E000604010F47F0F04BF002086F838
:10276000E400092D00F08980D6F8FC00604010F4E8
:102770007F0F04BF002086F800010A2D7DD0D6F817
:102780001801604010F47F0F04BF002086F81C0180
:102790000B2D72D0D6F83401604010F47F0F04BFC7
:1027A000002086F838010C2D67D0D6F85001604023
:1027B00010F47F0F04BF002086F854010D2D5CD06B
:1027C000D6F86C01604010F47F0F04BF002086F83B
:1027D00070010E2D51D0D6F88801604010F47F0FA3
:1027E00004BF002086F88C010F2D46D0D6F8A40136
:1027F000604010F47F0F40D1002086F8A80101B09E
:10280000F0BD00BF012D38D00020022D84F820003B
:1028100033D0032D84F83C002FD0042D84F85800C9
:102820002BD0052D84F8740027D0062D84F8900055
:1028300023D0072D84F8AC001FD0082D84F8C800E1
:102840001BD0092D84F8E40017D00A2D84F800016C
:1028500013D00B2D84F81C010FD00C2D84F83801F7
:102860000BD00D2D84F8540107D00E2D84F8700183
:1028700003D00F2D84F88C0102D101B0F0BD00BF50
:1028800084F8A80101B0F0BD40F6BE00C2F200001D
:102890000078704740F6BE01C2F200010A786AB1C2
:1028A0002DE9F04140F6C00C02F0030E042AC2F2FA
:1028B000000C07D20023002224E000BF002290B2C7
:1028C000704700BFACF1700102F0FC080023002249
:1028D00091F8745091F8906091F8AC70054291F8BD
:1028E000C84018BF0132064218BF0132074218BF64
:1028F0000132044203F1040318BF0132984501F18B
:102900007001E5D1BEF1000F17D0C3EBC3010CEB92
:1029100081010B79034218BF0132BEF1010F0CD0C7
:1029200091F82030034218BF0132BEF1020F04D0EB
:1029300091F83C10014218BF0132BDE8F04190B25D
:102940007047000040F6BE01C2F20001097800297C
:1029500004BF0020704770B5C1EBC1016FF0530296
:1029600002EB810E6FF01B0202EB81036FF0370266
:1029700040F6C00420F07F404FEA810C02EB810258
:102980000021C2F200046558854215D08B4210D058
:102990006518EE69864211D08A420AD0AE6B864233
:1029A00010D08E4505D06E6D86420FD070318C45AB
:1029B000E9D1002070BD00BF601870BD05F11C009A
:1029C00070BD00BF05F1380070BD00BF05F15400B7
:1029D00070BD000040F6BE01C2F200010A7840F668
:1029E000C00C0021C0EBC003C2F2000C824288BFC1
:1029F0000CEB830108467047FF20704780B582B01A
:102A0000019040F22010C2F2000001A901224FF60D
:102A1000FF73FEF78BFF019802B080BD40F21802F1
:102A2000C2F20002137833B3014602F12C005A1EA1
:102A300019E000BF30F81C3C8B4204BF1C387047C3
:102A4000012A18D030F80E3C8B4204BF0E38704774
:102A5000022A10D003888B4208BF7047043A531CE7
:102A600000F1380007D030F82A3C8B4204BF2A38E6
:102A70007047002ADED10020704700002DE9F047A2
:102A80000E46DDF8208041F2101941F224319A46B9
:102A90001546074600EB0904FDF77FFB0020C4E95B
:102AA0008565C4E987A807F80900BDE8F08700003C
:102AB0000A79002A08BF7047F0B585B04B791E0926
:102AC000032E19D841F202150544DFE806F0033F52
:102AD000192700BF03F00F04A2420DD9621E062A77
:102AE0000AD8421C0631064610462246FDF73CFB3A
:102AF0002C806C800020307005B0BDE8F04070473D
:102B00000778012FF8D12F797B401B075CD000217B
:102B1000017005B0BDE8F040704700BFA87B0128F8
:102B2000EAD103F00F00012800F09E80002840F059
:102B3000A380887985F81502C87985F817020020E6
:102B400085F816020220A8739CE000BF012AD3D0AA
:102B5000023A8E79D4B2421C03F00F03062C28BF30
:102B60000624073107461046224646EA0326FDF7AB
:102B7000FBFA6C80012000242E80A880AC71387094
:102B800002F040FAC5F80A00D5F8260208230190A1
:102B9000C00AD5F82A22D5F82E1204948DF80830F0
:102BA00018BF01208DF811003020CCF60040CDF880
:102BB00009004FF0CC30CDF80D0001A8904705B0CA
:102BC000BDE8F040704700BF2B886F88013ADB1BDF
:102BD000D2B29EB2072A28BF0722964238BF1A46B1
:102BE00006463844D4B2013006312246FDF7BCFA1D
:102BF0006888A97920446880287901302871481CA8
:102C0000A87102F0FFF969882A88C5F80A00914284
:102C1000BFF470AF687900283FF46EAFA9798142A4
:102C2000FFF46AAF0020D5F82622A871049008208E
:102C30008DF80800D00AD5F82A32D5F82E12019264
:102C400018BF01208DF811003020CCF60040CDF8DF
:102C500009004FF0CC30CDF80D0001A8984705B021
:102C6000BDE8F040704700BF95F81E020130C1B2C8
:102C7000062985F81E0205D30020A87305B0BDE81B
:102C8000F040704702F0BEF9C5F81A0205B0BDE881
:102C9000F0407047F0B587B00446007841F20C115F
:102CA000012804EB010608D130684FF47A7102F074
:102CB0009DF900281CBF00202070307901280CD11C
:102CC000D6F810024FF47A7102F090F920B100208A
:102CD000307107B0F0BD00BF307902286AD1D6F854
:102CE000100202F07DF996F80D12884262D3B6F810
:102CF0000602B6F808120222401A85B2072D28BF34
:102D0000072596F80A026F4662F31F10214441F22C
:102D100011128DF80000781C11442A46FDF724FAA0
:102D2000072D06D07819013085F00701CC22FDF778
:102D30002DFAD6E987020024069403900824C00ADD
:102D4000D6F82412DDE900378DF8104018BF0120B5
:102D50008DF8190003A8CDF81130CDF81570904703
:102D600040B3B6F8080296F80C122844A6F80802F8
:102D700096F80A02013086F80A02481C86F80C020E
:102D800002F040F9B6F80812B6F80622C6F81002AA
:102D900091429CD296F80B0260B196F80C128142D7
:102DA00008D301203071002086F8140202F02AF9BD
:102DB000C6F8100207B0F0BD19B141F20212825AF2
:102DC0000A8001307047000041F202110022425097
:102DD00070470000017800291CBF0020704741F2B5
:102DE000021101444A880020002A08BF7047098860
:102DF0008A4228BF01207047F0B587B041F2101316
:102E0000C75C1FB1012007B0F0BD00BFA2F20127CF
:102E1000BFB2B7F57E4F03D2042007B0F0BD00BFAC
:102E2000072A00EB03062FD86D46681CD4B28DF834
:102E300000201746FDF798F9062C06D8E81901304E
:102E400084F00701CC22FDF7A1F9D6E98602D6F875
:102E500020120026069603900826C00ADDE90037F6
:102E60008DF8106018BF01208DF8190003A8CDF867
:102E70001130CDF81570904701460420002918BF85
:102E8000002007B0F0BD00BF41F2111318440C46FA
:102E90001546FDF769F9A6F8025220682902A388B1
:102EA00089B241EA00411B0441EA1522D6E9867540
:102EB00043EA1040002306930823D6F820128DF829
:102EC0001030FB0A42F01002039718BF0123CDF81F
:102ED000150003A88DF81930CDF81120A847002857
:102EE0009AD00620A6F80402012086F80602307067
:102EF000002086F8100202F085F801460020C6F88E
:102F00000C1207B0F0BD000080B503680279411DC6
:102F10001846FDF7D9F9B0FA80F0400980BD0000ED
:102F200090B0FEF78DF800240120CDE90B44CDE9E7
:102F3000094406900A904FF4E0104FF480310225C6
:102F40000F9006A8CDE90714CDE90D51FEF726FA3A
:102F500020B1EFF3108072B6FEE700BF0F20CDE97D
:102F600001054FF48060CDE9040401A80221039417
:102F7000FEF70EF920B1EFF3108072B6FEE700BF46
:102F8000FEF7C2FDFEF79EFDFEF70EFEFDF77CF993
:102F900004A002F099FD00F0C1F8FEF72FFE00BF7B
:102FA000FEE700BF73746D33322063616E20746579
:102FB00073740D00002845D0B0B5044690F8200089
:102FC000002845D0A07ED4E9011202FB0010A18B9D
:102FD000228A02FB010545F6D730C0F6000002F058
:102FE00073FD61681EA002F017FB227BA17E23A067
:102FF00002F012FBA18B628A28A002F00DFB31A027
:10300000294602F009FB94F82100002118B1E08B59
:10301000013828BF014645F69C30C0F6000002F09A
:10302000FBFA218AE28945F65E30C0F6000002F024
:10303000F3FA45F6B130C0F60000BDE8B04002F04A
:1030400043BD00BF45F6FB30C0F6000002F03CBDBA
:1030500045F6FB30C0F60000BDE8B04002F034BDDC
:1030600042617365204164647265737320203A2065
:103070003078253038580D0A00000000416374692B
:10308000766520536563746F72203A202575202879
:103090006F66202575290D0A0000000041637469E0
:1030A000766520536C6F742020203A2025752028E7
:1030B0006F662025752070657220736563746F726A
:1030C000290D0A0041637469766520416464726564
:1030D00073733A203078253038580D0A000000000C
:1030E000B0B586B0002504460195FDF783FE40F299
:1030F000FF7024EA000004900120059002A801A9B5
:10310000CDE90255FDF768FD0446FDF7DDFD002C15
:1031100018BF4FF0FF34204606B0B0BD80B58EB06A
:1031200045F644314FF600024FF0100CC0F6000196
:1031300005A8C0F600020223CDF800C001F098FAFD
:1031400010B100BFFEE700BF05A801A901F080FC97
:1031500060B146F24E10C0F2BC00002102904FF068
:10316000AA300191CDE9030001E000BF01990DA053
:1031700002F052FA029912A002F04EFA019801A947
:103180000130019005A801F06FFD28B1014612A0A1
:1031900002F042FA0EB080BD05A8FFF70BFF0EB09B
:1031A00080BD00BF706172616D732E626F6F745F5E
:1031B000636F756E7465723A2025640D0A00000015
:1031C000706172616D732E76696E5F6E756D62658A
:1031D000723A2025640D0A005361766520666169A4
:1031E0006C65642077697468207374617475733AD0
:1031F0002025640D0A000000002904BF6FF00300C1
:10320000704780B5034608461946FCF7ADFF00201D
:1032100080BD00004FF4006070470000F0B581B041
:10322000A1B116460C460546FDF7E4FD002000BF9F
:10323000871CB74210D8225A291801200023FDF715
:103240004DFD00283846F3D012E000BF6FF00304B4
:10325000204601B0F0BD00BFB04211D2215C002376
:1032600041F47F42291892B20120FDF737FD38B1B1
:103270004FF0FF34FDF728FD204601B0F0BD00BF40
:103280000024FDF721FD204601B0F0BD40F680206E
:10329000C2F2000000687047B0B5054600890C46D0
:1032A000022809D87F202070287860701320A07031
:1032B0000320A4F80002B0BD02F022F9012809D1D0
:1032C0007F202070287860702220A0700320A4F84E
:1032D0000002B0BD6868427801788078120242EA44
:1032E00001410844FEF76CFF28784030207001202F
:1032F000A4F80002B0BD0000704700007047000055
:103300000289AAB1F0B581B04268177807F07F044E
:10331000621FD2B2FB2A15D87F220A70007848704B
:10332000122088700320A1F8000201B0F0BD00BF98
:103330007F220A7000784870132088700320A1F85B
:103340000002704705460E4602F0DAF8A04215D199
:103350002046FF0902F008F9287874704030307078
:1033600043F20020CFF20140C6F802000620A6F882
:10337000000286F8027201B0F0BD00BF01380328D8
:103380000AD8DFE800F003090D1500BFE01EC0B247
:103390000228DDD310E000BF012CD9D00CE000BF23
:1033A000042C09D80120A04010F0160FD0D103E062
:1033B00007F07D000128CBD07F2030702878707016
:1033C0002220B0700320A6F8000201B0F0BD00007A
:1033D0002DE9F04F81B040F28816C2F20006327833
:1033E0000C46054642B940F28C10C2F20000A02102
:1033F000FCF7D3FE012030702889002873D06F6855
:103400003978032914D0012964D106286BD997F89B
:1034100001904FF4406101EB092189B2490A7E29EC
:103420005ED87F20207028786070312060E000BF77
:10343000022858D940F28C16C2F200067878F27C45
:10344000B97841EA002C1AB132886245324631D04F
:10345000324632F8147FD37C0BB167452AD032460E
:1034600032F8287FD37C0BB1674523D0324632F83F
:103470003C7FD37C0BB167451CD0324632F8507F7D
:10348000D37C0BB1674515D0324632F8647FD37CCC
:103490000BB167450ED0324632F8787FD37C0BB142
:1034A000674507D036F88C2FF37C002BB9D06245E6
:1034B0003246B6D12F780023D37407F14002227030
:1034C00003226270A070E1700420A4F8000201B031
:1034D000BDE8F08F7F20207028786070122007E010
:1034E000033881070CD07F2020702878607013206B
:1034F000A0700320A4F8000201B0BDE8F08F00BF67
:103500001FFA80FBCBF3870ABAF1050FBFF489AF2E
:10351000B87840EA092800904046FEF78DFC20B9B3
:10352000FEF754FC002800F09780DDF800C04FEA59
:103530009B010126BAF1000FA0F800808174C674C7
:103540007BD0BAF1040F01F0030E4FF0000B37D11E
:103550006FF0070A07EB8B03B3F8036000EB8B02F5
:1035600036BA360C56805E790BF1040B16719E79D3
:10357000BBF1040F5671B3F8076036BA4FEA16462E
:10358000D68093F8098000EB0A0686F81080997AB5
:103590000AF1100A7174B3F80B1009BA4FEA11411D
:1035A0005181597B3175997B5173B3F80F1009BA6A
:1035B0004FEA1141D181597C3176997C7176C9D11C
:1035C000BEF1000F4FF0010637D007EB8B0191F8E9
:1035D00003800B7900F1020A43EA08232AF82B3012
:1035E0004B790AEB8B0083708979BEF1010FC170B2
:1035F00023D00BF1010007EB800191F803800B79D8
:10360000BEF1020F43EA08232AF820304B790AEB77
:10361000800083708979C1700FD00BF1020007EB35
:103620008001CA780B7943EA02222AF820204A79DD
:103630000AEB800082708979C1702878667040300A
:10364000207084F8029084F803C00420A4F80002DB
:1036500001B0BDE8F08F00BF7F2020702878607037
:10366000222045E702899AB14268137803F07F0C63
:10367000ACF1060212F1060F14D87F220A7000780E
:103680004870122088700320A1F80002704700BF24
:103690007F220A7000784870132088700320A1F8F8
:1036A0000002704710B5007840F2F0044030DA09AB
:1036B00008700220C2F2000481F801C0A1F80002E3
:1036C00081F8022284F800C001F09CFC606001F0E7
:1036D0006BFCBDE8104001F023BF00002DE9F04F66
:1036E00081B0054600890C46022805D87F2020704D
:1036F0002878607013202EE0686890F8009090F8A9
:10370000018090F802A048EA0920FFF787F9B8B1D4
:103710008346C07A10B101F093FCB8B1BAF1030F3F
:103720000ED80020DFE80AF04802471E9BF80A2066
:103730000BF102000BF10601FCF716FD00203BE047
:103740007F20207028786070312004E07F20207076
:10375000287860703320A0700320A4F8000201B024
:10376000BDE8F08F9BF80A202989D01C8842BDD87B
:103770000323686803EB42038B4205D9C11C0BF19C
:103780000200FCF7F1FC16E0AAB10230012100BFF3
:103790000BEB0103871893F801C07F7810F8016FD5
:1037A0002CEA070C374067445F709BF80A30994257
:1037B00001F10101ECD3012029788BF80C0001F113
:1037C0004000207084F8019084F8028084F803A0FF
:1037D0009BF80A20201D0BF10201FCF7C5FC9BF8A9
:1037E0000A000430A4F8000201B0BDE8F08F000028
:1037F00003890BB370B54268157805F07F06032E78
:103800004FEAD5142ED0022E20D0012E3ED1012B0E
:103810001ED05278103AD2B2042A5DD238A353F89F
:103820002220054610460E4600F01AFF2878403048
:103830003070012022E000BF7F220A7000784870BB
:10384000132088700320A1F800027047032B27D8AB
:103850007F220A7000784870132088700320A1F836
:10386000000270BD05460E4600F0F4FE00283DD073
:1038700000F0E8FE2878403030700320707002209D
:10388000A6F8000286F8024270BD00BF7F220A70CF
:1038900000784870122088700320A1F8000270BDE3
:1038A00096785378D278360246EA03431A44A2F156
:1038B0000A0340F2DF36B3420ED2054610460E46EA
:1038C00000F0CEFE28784030307002207070A6F8EC
:1038D000000286F8024270BD7F220A7000784870AC
:1038E000312088700320A1F8000270BD7F20307065
:1038F000287870702420B0700320A6F8000270BDF4
:103900007D000000FA000000F4010000E803000060
:103910002DE9F04F8BB0054600890C46022811D3E3
:1039200010F001000ED100F087FE2978403121709F
:103930002989002900F0BC804FF001094FF00008F0
:10394000019021E07F202070287860701320A07003
:103950000320A4F800020BB0BDE8F08F09F10101CB
:1039600004F800A009F1020788B204F800B0B8B268
:10397000204403A93246FCF7F7FB07EB06090420B5
:10398000042800F08880A7E0686800EB080110F8C0
:1039900008A091F801B04BEA0A263046FEF75CFB1E
:1039A000A0B1074600884FF2801120F07F008842C6
:1039B00054D001F0A5FD97F8241002294AD001291E
:1039C0004CD10238032849D38AE000BF0AF0FE0038
:1039D000F2280AD100208DF80B00304603A90DF122
:1039E0000B022023FEF76AFAA8B9019800286DD0CF
:1039F0000768002F6AD000208DF80B0031208DF869
:103A00000A00304603A90DF10B0220230DF10A062E
:103A10000096B84780B19DF80B601FFA89F08119B4
:103A20000231B1F5007F99D97F202070287860702D
:103A30001420A07007E000BF7F20207028789DF838
:103A40000A106070A1700320A4F80002012004286D
:103A500021D041E001F0F4FA002843D097F8221079
:103A60001FFA89F001440231B1F5007F28D809F12D
:103A7000010104F800A088B209F1020604F800B0C0
:103A8000B0B297F822202044B91CFCF76DFB97F8E0
:103A9000220006EB000908F1020029891FFA80F8CC
:103AA0008845FFF471AFA4F800920BB0BDE8F08F29
:103AB0004FF00109A4F800920BB0BDE8F08F00BFF1
:103AC0007F20207028786070142040E77F202070CD
:103AD0002878607031203AE70BB0BDE8F08F00BF66
:103AE000222000E033207F212170297861702EE7A9
:103AF0002DE9F04381B0054600890C46002800F00E
:103B00008C8068680678FEF777FF711E052900F241
:103B10009180DFE801F0034F8F1D8F7F29890129F4
:103B20007BD96968064649780846FEF7B3FE2978CE
:103B3000A6704031217001216170E170010A21718C
:103B400060710627A4F8007201B0BDE8F08300BFE1
:103B50002889032861D9686882784178C078120280
:103B600042EA01410844FEF7EDFE002800F096808D
:103B7000297840312170042161704188A170016869
:103B8000090AE170016821710179617141790029A7
:103B900000F08A800121A171827BE31D811D054611
:103BA0001846FCF7E1FAA87BC71DA4F8007201B023
:103BB000BDE8F083298901292FD969682A7891F80D
:103BC000018002F14001217002216170A070FEF7B6
:103BD0005BFE40B381460026032703E00136F0B2C6
:103BE0004845AFD2F0B2FEF7F5FE0028F6D00179D5
:103BF00011EA080FF2D0B7F5FE7F5BD84188E219D1
:103C0000E15501680437090A517001689170007923
:103C1000D070E3E72889032812D87F202070287805
:103C200060701320A0700327A4F8007201B0BDE8F3
:103C3000F08300BF7F202070287860701220F1E7A9
:103C4000686882784178C078120242EA01410844EB
:103C5000FEF778FE10B3297806274031217067708F
:103C60004188A1700168090AE17001682171017938
:103C70006171C17B00293FF465AF0121A171027E12
:103C8000E31D00F1100105461846FCF76DFA287E89
:103C9000C71DA4F8007201B0BDE8F0837F2020703A
:103CA000287860703120BDE70627A4F8007201B0C3
:103CB000BDE8F0837F202070287860701420B1E781
:103CC0007047000002897AB170B543681C78231FE1
:103CD0001E0613D0DBB2FC2B20D87F220A7000789E
:103CE0004870312021E000BF7F220A7000784870C0
:103CF000132088700320A1F8000270470C46054687
:103D000001F052F92878214640302070042060707C
:103D10000220BDE87040A1F800027047012A0BD1D3
:103D20007F220A7000784870132088700320BDE855
:103D30007040A1F8000270470646601EC0B20D46F2
:103D400001F042F900284BD0B6F808E0B446BEF1C5
:103D5000020F294638D3012309E000BF00260132B3
:103D600002728555BCF808E0013373452CD2027A03
:103D7000082A29D2DCF80450002AED5CEED006783F
:103D8000AE42F1D0012A01D11646E8E74678AE42AC
:103D9000EAD0022AF8D08678AE42E5D0032AF3D0E2
:103DA000C678AE42E0D0042AEED00679AE42DBD02F
:103DB000052AE9D04679AE42D6D0062AE4D08679E3
:103DC000AE421646CBD1CFE79CF800004C70403095
:103DD00008700220BDE87040A1F80002704700BFE3
:103DE0007F2028703078294668702220A870032030
:103DF000BDE87040A1F80002704700002DE9F047CF
:103E000082B00C46054601F0F5FB017831B17F2008
:103E1000207028786070222012E000BF2E89022EC8
:103E200009D969684B7803F00F0707F1020C0CEB16
:103E3000131296420CD27F202070287860701320D5
:103E4000A0700320A4F8000202B0BDE8F08700BF14
:103E500091F80080002F49D091F802A0012F47D09F
:103E6000CA78022F42EA0A2A42D00A79032F42EA8C
:103E70000A2A3DD04A79042F42EA0A2A38D08A79A0
:103E8000052F42EA0A2A33D0CA79062F42EA0A2AC3
:103E90002ED00A7A072F42EA0A2A29D04A7A082F16
:103EA00042EA0A2A24D08A7A092F42EA0A2A1FD033
:103EB000CA7A0A2F42EA0A2A1AD00A7B0B2F42EA50
:103EC0000A2A15D04A7B0C2F42EA0A2A10D08A7B94
:103ED0000D2F42EA0A2A0BD0CA7B0E2F42EA0A2A89
:103EE00006D00A7C42EA0A2A02E000BF4FF0000A2C
:103EF0008146102B02D200274AE000BF180911F8B2
:103F00000C70012844D061444A78022842EA07270D
:103F10003ED08A78032842EA072739D0CA78042895
:103F200042EA072734D00A79052842EA07272FD02A
:103F30004A79062842EA07272AD08A79072842EADE
:103F4000072725D0CA79082842EA072720D00A7A0D
:103F5000092842EA07271BD04A7A0A2842EA07279B
:103F600016D08A7A0B2842EA072711D0CA7A0C2881
:103F700042EA07270CD00A7B0D2842EA072707D020
:103F80004A7B0E2842EA072702D0887B40EA0727AF
:103F900000F052FBD8B14669CEB150463946424690
:103FA0002B460094B04768B1022089F80000002039
:103FB000C9F80C000120C9E901A789F8100002B076
:103FC000BDE8F087B4F8000200287FF43DAF7F2001
:103FD000207028786070702032E700002DE9F047EB
:103FE00082B00C46054601F005FB017831B17F2017
:103FF000207028786070222012E000BF2E89022EE7
:1040000009D969684B7803F00F0707F1020C0CEB34
:10401000131296420CD27F202070287860701320F3
:10402000A0700320A4F8000202B0BDE8F08700BF32
:1040300091F80080002F49D091F802A0012F47D0BD
:10404000CA78022F42EA0A2A42D00A79032F42EAAA
:104050000A2A3DD04A79042F42EA0A2A38D08A79BE
:10406000052F42EA0A2A33D0CA79062F42EA0A2AE1
:104070002ED00A7A072F42EA0A2A29D04A7A082F34
:1040800042EA0A2A24D08A7A092F42EA0A2A1FD051
:10409000CA7A0A2F42EA0A2A1AD00A7B0B2F42EA6E
:1040A0000A2A15D04A7B0C2F42EA0A2A10D08A7BB2
:1040B0000D2F42EA0A2A0BD0CA7B0E2F42EA0A2AA7
:1040C00006D00A7C42EA0A2A02E000BF4FF0000A4A
:1040D0008146102B02D200274AE000BF180911F8D0
:1040E0000C70012844D061444A78022842EA07272C
:1040F0003ED08A78032842EA072739D0CA780428B4
:1041000042EA072734D00A79052842EA07272FD048
:104110004A79062842EA07272AD08A79072842EAFC
:10412000072725D0CA79082842EA072720D00A7A2B
:10413000092842EA07271BD04A7A0A2842EA0727B9
:1041400016D08A7A0B2842EA072711D0CA7A0C289F
:1041500042EA07270CD00A7B0D2842EA072707D03E
:104160004A7B0E2842EA072702D0887B40EA0727CD
:1041700000F062FAD8B1066ACEB1504639464246DE
:104180002B460094B04768B10120002189F8000057
:10419000C9E901A7C9F80C1089F8100002B0BDE800
:1041A000F08700BFB4F8000200287FF43DAF7F2005
:1041B000207028786070702032E700000289022A9F
:1041C0000AD87F220A700078032248701320A1F8D1
:1041D00000228870704700BF10B542684FF201049A
:1041E00092F801E092F802C04CEA0E231C1B032C4B
:1041F00002D3B3F57F4F25D11278032A0CD0012AC0
:1042000016D10420A1F8000240F27110088081F854
:1042100002E081F803C010BD0520A1F8000240F2C1
:104220007130088081F802E081F803C010BD00BF42
:104230007F220A700078032248701220A1F8002221
:10424000887010BD7F220A7000780322A1F8002236
:1042500048703120887010BD2DE9F0410546008975
:104260000C4678B36868067800F0E4FE03280BD1AA
:104270007F202070287860703720A0700320A4F879
:104280000002BDE8F08100BF4FEAD618F10706F042
:104290007F0723D1012839D100F018FF2A898242F3
:1042A00010D901466868013000F012FFD0B32878B9
:1042B0006770403020700220A4F8000284F8028267
:1042C000BDE8F0817F202070287860701320A070F6
:1042D0000320A4F80002BDE8F08100BF00F0CEFE8C
:1042E000064600F0F3FE2978054601F140002070F3
:1042F000A01C31462A466770FBF736FFA81CA4F8BD
:10430000000284F80282BDE8F08100BF7F202070A7
:10431000287860702420A0700320A4F80002BDE873
:10432000F08100BF00F086FE03284FF07F00207070
:1043300028784FF0350108BF36216070A170032046
:10434000A4F80002BDE8F08102896AB142681278DF
:10435000530613D07F220A700078487012208870AC
:104360000320A1F8000270477F220A70007848708D
:10437000132088700320A1F80002704770B5D4099B
:104380000D46064601F0C2F8307885F8024240300A
:104390002870002068700220A5F8000270BD00009F
:1043A0002DE9F04383B00C46054601F023F901786E
:1043B000B1B32A89D2B36F68037C3E789E423BD169
:1043C0008046022944D1A2F1010900F035F968B113
:1043D000D0F818C0BCF1000F08D0781C1FFA89F182
:1043E00032462B460094E04700285FD0D8F80C00F6
:1043F0001FFA89F10844C8F80C0098F81000B4F8C6
:1044000000120130002988F810004FD1287866701A
:10441000403020700220A4F8000203B0BDE8F08311
:104420007F2020702878607024200AE07F20207090
:1044300028786070132004E07F2020702878607056
:104440007320A0700320A4F8000203B0BDE8F0833D
:1044500000F0F2F8F0B1476AE7B10020ADF80A00C9
:10446000A01C0DF10A014FF4FF723346CDE9005450
:10447000B847D8B12878667040302070BDF80A007F
:10448000D8F80C20811C1044A4F80012C8F80C00C5
:1044900007E000BF28786670403020700220A4F842
:1044A000000298F81000013088F8100003B0BDE851
:1044B000F0830000B0B50C46054601F09BF800788B
:1044C00002280BD0D0B97F2020702878607024207B
:1044D000A0700320A4F80002B0BD00BF00F0ACF84B
:1044E00028B1C2691AB128462146904790B1B4F864
:1044F000000298B1BDE8B04001F082B800F09CF82D
:1045000028B1826A1AB128462146904710B1B4F802
:10451000000218B1BDE8B04001F072B82878403010
:1045200020700120A4F80002BDE8B04001F068B896
:104530002DE9F04F83B0054600890C46022807D8C4
:104540007F20207095F800B04FF0130960E000BFA5
:104550006E68023816F802BB029016F8019C49EA10
:104560000B2A00F069F880465046FDF775FD58B3F8
:10457000074690F82300002844D000F0C1FF97F8C8
:104580002410C9B2012902D10238032832D20229EB
:1045900003D100F055FD002844D002983146C7B23F
:1045A00050463A46FDF798FD20B3B8F1000F06D00B
:1045B000D8F808301BB1504631463A46984728781B
:1045C0004030207024E000BFB8F1000F0AD0D8F8C6
:1045D00004703FB102983146C2B250462B46009457
:1045E000B847E0B97F20207095F800B04FF031094E
:1045F0000EE000BF7F20207095F800B04FF0220938
:1046000006E000BF7F20207095F800B04FF07209DF
:10461000032084F801B084F80290A4F8000203B0EB
:10462000BDE8F08F7F20207095F800B04FF033097F
:10463000EEE700007047000040F28C00C2F200007C
:104640004068704740F29400C2F20000002181707F
:104650004161704740F29400C2F2000080787047D8
:1046600040F29401C2F20001486101208870704755
:104670002DE9F04F93B0834600286FF0030018BF78
:10468000002903D113B0BDE8F08F00BF08680028EF
:1046900041D0486800283ED08868E0B3DDF870A0BB
:1046A0006FF00300BAF1000F18BF002BEAD0CF68FB
:1046B000002FE7D010460E461D469046B84750B32F
:1046C000327C002A08BF0222511E1140090622D165
:1046D000D7B2B1463E462946102F98BF10267D1E00
:1046E0002E44B3B2B3FBF7F455447C43E31AB5FB55
:1046F000F7F506EB030C05FB07C31E071E4603F187
:104700000F0418BF24F00F06102F28BF1E461FFAF3
:1047100086FE704504D26FF0030013B0BDE8F08F41
:1047200099F8113005FB07F4002B08BFFF23CBF8E5
:104730000800B0FBFEF08BF81820ABF81200002543
:104740004FF480320004CBE900988BF80C10ABF8E2
:104750000EA0ABF81060ABF814C0ABF816408BF8A5
:1047600019308BF81A50CBF81C20ABF8205000F011
:10477000688101200DF11C0A4CF2DE090BAE41F2FA
:1047800021040022CDE90022CDE9022206E000BF8B
:104790009BF80C1001358D4280F03F81002800F01D
:1047A0003781002704950CE0049D069FD3460DF148
:1047B0001C0A4CF2DE0900BFBBF812000137874229
:1047C000E6D2DBE90101DBF8002001FB0500BBF8C4
:1047D0001010536807FB010051461022984700282B
:1047E000EAD1BDF81C004845E6D1BDF82080BBF8F1
:1047F0000E008045E0D1BDF82210B8F1000F00F0A6
:10480000DF800591DBE90101BBF8102001FB050009
:10481000BBF8141007FB0200069747184FF6FF7904
:1048200008E000BFA8EB0B085FEA08405F44D346EE
:1048300000F0CC80DBF800001FFA88F5DA46AB46C2
:104840004368202D28BF4FF0200B384631465A468A
:1048500098470028A8D1012D04D100205FEACB7130
:10486000E0D077E02BF0010041426FF0010000BF83
:1048700032189378D27889EA03235D00ADB21B0425
:1048800048BF65406B009BB2B5F5004F28BF634041
:104890005D00ADB2B3F5004F28BF65406B009BB221
:1048A000B5F5004F28BF63405D00ADB2B3F5004FD2
:1048B00028BF65406B009BB2B5F5004F28BF634031
:1048C0005D00ADB2B3F5004F28BF65406B009BB2F1
:1048D000B5F5004F28BF634083EA022253009BB224
:1048E000B2F5004F28BF63405A0092B2B3F5004FB3
:1048F00028BF624053009BB2B2F5004F28BF63400F
:104900005A0092B2B3F5004F28BF624053009BB2E9
:10491000B2F5004F28BF63405A0092B2B3F5004F82
:1049200028BF624053009BB2B2F5004F28BF6340DE
:104930005A0002301FFA82F9B3F5004F01EB000272
:1049400028BF89EA0409023292D102305FEACB71B2
:104950003FF468AF305C89EA0020410089B200046E
:1049600048BF6140480080B2B1F5004F28BF6040A9
:10497000410089B2B0F5004F28BF6140480080B2C5
:10498000B1F5004F28BF6040410089B2B0F5004F3B
:1049900028BF6140480080B2B1F5004F28BF604099
:1049A000410089B2B0F5004F28BF614048001FFAAE
:1049B00080F9B1F5004F28BF89EA040932E700BF4A
:1049C0004FF6FF7088427FF4F7AE0BE0049DDDE9FF
:1049D00005171FFA89F00DF11C0A4CF2DE09884216
:1049E0007FF4EAAEBDF81E000299411A09B201290E
:1049F0004FF00001B8BF0121039A0A4202D0012002
:104A00000390D9E60121CDE90201CDE90057D3E6B3
:104A1000002001358D42FFF4C1AE0398C00710D0CD
:104A2000009902988BF81A100199013080B2ABF806
:104A30001C100121012898BF0846ABF81E008BF816
:104A4000211001208BF82000002013B0BDE8F08F6A
:104A500040B36FF0030239B390F8203023B390F8DD
:104A60002120002A04BF4FF0FF307047F0B585B019
:104A7000827ED0E90135848B05FB0232038A05680A
:104A800003FB0423848A6D68C289064618190F4601
:104A9000A84758B14FF0FF3205B0BDE8F0401046CE
:104AA000704700BF6FF0030210467047B6F80EC0A3
:104AB000B646BCF1000F07D0BCF1010F08D14FF68C
:104AC000FF7400203A4679E04FF6FF74ADE000BF76
:104AD0002CF0010043424FF6FF746FF0010141F2E8
:104AE00021003A465518AE78ED7884EA062466002F
:104AF000B6B2240448BF46407400A4B2B6F5004FD5
:104B000028BF44406600B6B2B4F5004F28BF464007
:104B10007400A4B2B6F5004F28BF44406600B6B298
:104B2000B4F5004F28BF46407400A4B2B6F5004F5C
:104B300028BF44406600B6B2B4F5004F28BF4640D7
:104B40007400A4B2B6F5004F28BF444084EA05249F
:104B50006500ADB2B4F5004F28BF45406C00A4B26B
:104B6000B5F5004F28BF44406500ADB2B4F5004F25
:104B700028BF45406C00A4B2B5F5004F28BF4440A3
:104B80006500ADB2B4F5004F28BF45406C00A4B23B
:104B9000B5F5004F28BF44406500ADB2B4F5004FF5
:104BA00028BF45406C000231A4B2B5F5004F03EBBD
:104BB000010528BF4440023594D1881C5FEACC71BE
:104BC00033D0105C84EA0021480082B2090441F22B
:104BD000210048BF4240510089B2B2F5004F28BFC2
:104BE00041404A0092B2B1F5004F28BF4240510007
:104BF00089B2B2F5004F28BF41404A0092B2B1F5E8
:104C0000004F28BF4240510089B2B2F5004F28BF83
:104C100041404A0092B2B1F5004F28BF42405100D6
:104C20008CB2B2F5004F28BF44409EF81A00DEE96E
:104C30000112BEF81C3002FB0010BEF81010DEF8A6
:104C4000002001FB0300536801A910229847BDF81A
:104C50000A10A2B25140084318BF0120424205B0D9
:104C6000BDE8F04010467047002804BF6FF0030015
:104C700070472DE9F04F99B004466FF00300B1B1D1
:104C80000E4694F8201091B194F8210040B1A08B09
:104C9000618A431C98B2A57E88420BD204961EE01E
:104CA000D4E9001009688847B0B14FF0FF3019B05F
:104CB000BDE8F08F207B691CB1FBF0F202FB101500
:104CC00094E80700036802FB0510984728B14FF0ED
:104CD000FF3019B0BDE8F08F002504960023D4E919
:104CE0000101EAB201FB0200218A9AB201FB020132
:104CF000A08A09AE0295E589B4F81690039101EBFC
:104D00000008304640210193FBF747FA4FF0000BB3
:104D10000AE000BF20683146836808EB0A003A4683
:104D200098470028BB44D2D11FFA8BFAD1451BD932
:104D3000A9EB0B0087B2627E4020402F28BF0746B8
:104D400030463946FBF722FA5545E3D9A5EB0B006F
:104D500082B2BA4228BF3A46049800EB0A013046B4
:104D6000FBF702FAD6E700BF607E4FF00131B4F8DE
:104D70000EC04843E18BCDE907004CF2DE00BCF1E8
:104D8000000FADF81400ADF81610ADF818C00BD038
:104D9000BCF1010F0CD104994FF6FF7700225FEAB6
:104DA000CC707ED1B1E000BF4FF6FF77ADE000BF21
:104DB0002CF00101484204994FF6FF776FF0010291
:104DC00041F221038E18B578F67887EA05277D0031
:104DD000ADB23F0448BF5D406F00BFB2B5F5004FB4
:104DE00028BF5F407D00ADB2B7F5004F28BF5D40E2
:104DF0006F00BFB2B5F5004F28BF5F407D00ADB278
:104E0000B7F5004F28BF5D406F00BFB2B5F5004F4A
:104E100028BF5F407D00ADB2B7F5004F28BF5D40B1
:104E20006F00BFB2B5F5004F28BF5F4087EA062785
:104E30007E00B6B2B7F5004F28BF5E407700BFB224
:104E4000B6F5004F28BF5F407E00B6B2B7F5004F01
:104E500028BF5E407700BFB2B6F5004F28BF5F4065
:104E60007E00B6B2B7F5004F28BF5E407700BFB2F4
:104E7000B6F5004F28BF5F407E00B6B2B7F5004FD1
:104E800028BF5E4077000232BFB2B6F5004F00EB9C
:104E9000020628BF5F40023694D102325FEACC702E
:104EA00033D0885C87EA0021480082B2090441F2CD
:104EB000210048BF4240510089B2B2F5004F28BFDF
:104EC00041404A0092B2B1F5004F28BF4240510024
:104ED00089B2B2F5004F28BF41404A0092B2B1F505
:104EE000004F28BF4240510089B2B2F5004F28BFA1
:104EF00041404A0092B2B1F5004F28BF42405100F4
:104F00008FB2B2F5004F28BF47400DF12409A58AA2
:104F100048464021A346ADF81A704FF04008FBF711
:104F20003CF900270DF1140A0CE000BFDBF800008B
:104F300049468368039832462044984700283744FE
:104F40007FF4C5AEBCB2A54218D9E81B86B29BF867
:104F50001920402E28BF464648463146FBF716F931
:104F60000F2CE3D8C7F1100082B20AEB04014846C7
:104F7000B24228BF3246FBF7F7F8D7E7029801990B
:104F80008BF81A00BBF81E00ABF81C10013080B281
:104F90000121012898BF0846ABF81E0000208BF8BD
:104FA000211019B0BDE8F08F40F29400C2F2000069
:104FB000002180F83410816380F84410816480F807
:104FC000541081657047000040F29401C2F2000164
:104FD00001EB00112C31022888BF002108467047E0
:104FE00010B50446FCF718F8001B10BDB0B50C4610
:104FF0000546FCF711F8411B0020A14228BF012003
:10500000B0BD0000FCF708B810B540F2F004C2F2E1
:1050100000042078002808BF10BDFFF7F3FF616887
:10502000401A332800D210BD002020706060FCF7C9
:10503000B7FE000040F29400C2F200000078704712
:1050400040F29400C2F2000000780238B0FA80F01A
:105050004009704710B540F29404C2F20004207871
:10506000032818BF10BD206942F21071FFF7BEFF80
:1050700000281CBF0020208010BD000010B540F2A9
:105080009404C2F200042078022805D10020A06018
:1050900004F1080010BD00BFFFF7B4FFC0F30741E3
:1050A000C0F3072241EA106103BA1143C0B20843BA
:1050B000E36002BF43F21240C7F65600E060E068CA
:1050C000A0600120207004F1080010BD042070478A
:1050D00004293CBF0020704710B540F29404C2F28E
:1050E0000004217B02785140CA2913D1617B4278A8
:1050F0005140FE290ED1A17B82785140BA2909D1B5
:10510000E17BC0784840BE2804D1022020800120E5
:1051100010BD00BF60780130C1B20329607007D3B1
:1051200003202070FFF76EFF2061002010BD00BF3C
:105130000020207010BD000080B540F28C0CC2F23F
:10514000000CCCF8040041F6B850C2F2000019215E
:1051500080F8241043F6F121C0F60001816222217B
:1051600080F8301043F61111C0F60001416323218D
:1051700080F83C1043F6C141C0F6000101642721CC
:1051800080F8481044F25921C0F60001C16428217A
:1051900080F8541043F2F921C0F6000181652A21FC
:1051A00080F8601043F6C541C0F6000141662C212D
:1051B00080F86C1043F2D131C0F6000101672E2156
:1051C00080F8781044F23151C0F60001C1674FF405
:1051D0008E71A0F880102F2180F8841043F2DD61D9
:1051E000C0F60001C0F88810312180F8901044F218
:1051F000BD11C0F60001C0F89410342180F89C1055
:1052000043F6FD51C0F60001C0F8A0104FF48271C2
:10521000A0F8A410352180F8A81043F6DD71C0F67F
:105220000001C0F8AC104FF486711123A0F8B01043
:10523000A0F8BC10A0F8C8103E21037343F26563C8
:1052400080F8CC1044F24931C0F60003C0F60001EA
:1052500003611423C0F8D0103D21037643F2992353
:1052600080F8D81044F23561C0F60003C0F60001A2
:10527000C3611C23C0F8DC1085210384A0F85030E2
:10528000362380F8E41043F2FD2180F8B43044F274
:10529000A133C0F600011022C0F60003C0F8E810E8
:1052A0001521027043F20132C0F8B83037238CF870
:1052B00000108721C0F6000280F8C03044F2B543E8
:1052C00080F8F01043F2F17142601E224FF0180E88
:1052D000C0F60003C0F60001028182828285028747
:1052E000A0F84420A0F85C20A0F868E0A0F874E0E2
:1052F000A0F88CE0A0F89820C0F8C430A0F8D42022
:10530000A0F8E020A0F8EC20C0F8F410A0F8F8E035
:10531000BDE8804000F04CB980B500F0C1F8FFF75F
:1053200099FEBDE88040FFF76FBE0000002904BF72
:10533000002070472DE9F04F87B00DF1040C8CE888
:10534000070090F8008018464FF401719B46FAF769
:1053500024FF00F0DBF840F28C00C2F2000000787D
:1053600041F6B851C2F2000100EB400CA1F10C0A69
:10537000A1F12407A1F118064FEA8C0E6FF00B0281
:105380000C25012824DB01EB0E0414F80C9CC1450C
:105390002AD0AE451CD014F8183C434528D0032829
:1053A00016D314F8243C434526D0303296450FD00E
:1053B00014F8303C3035AAF1300A3039303F303EF5
:1053C0004345A0F10400DCD101EB8C0416E000BFE2
:1053D000039800284FF0000035D17F218BF8001092
:1053E0008BF80180112148E00AEB8C0406E000BF35
:1053F00006EB8C0402E000BF07EB8C0400F080F8A1
:10540000217A042828BF042021FA00F0C0071DD00B
:10541000607A10B1FFF714FE20B302998DF8108066
:10542000481E019A18BF501C0590481EADF8180080
:10543000039862688DF81A0004A8594690479BF8B3
:10544000020228B3002007B0BDE8F08F03980028BF
:105450004FF00000F7D17F218BF800108BF801800E
:105460000BE000BF039800284FF00000EBD17F2134
:105470008BF800108BF8018033218BF80210032188
:10548000ABF800128BF80202012007B0BDE8F08FE4
:10549000BBF80002002818BF012007B0BDE8F08F5C
:1054A000B0B540F21405C2F200052878012825D0D5
:1054B00040F29404C2F20004606841F28831FFF7C0
:1054C00095FDD8B101202870FFF79CFD2178606020
:1054D00003291CBF002020700020E060C4E9060002
:1054E000C4E90800A06284F83400A06384F8440092
:1054F000A06484F85400A0650120B0BD0020B0BDB8
:1055000040F21400C2F200000078704780B5FFF747
:1055100079FD40F29401C2F20001486080BD0000B4
:1055200080B540F21400C2F2000001210170FFF7C3
:1055300069FD40F29401C2F200010A784860032A32
:105540001CBF002008700020C860C1E90600C1E946
:105550000800886281F83400886381F84400886418
:1055600081F85400886580BD80B540F21401C2F214
:1055700000010870FFF746FD40F29401C2F20001FD
:105580000A784860032A1CBF002008700020C86009
:10559000C1E90600C1E90800886281F83400886327
:1055A00081F84400886481F85400886580BD00005B
:1055B00080B540F21400C2F2000001210170FFF733
:1055C00021FD40F29401C2F20001486000200880F1
:1055D000C86081F83400886381F84400886481F8E9
:1055E000540088658870C1E90500C1E90700C1E978
:1055F000090080BD40F29400C2F2000018307047EC
:1056000040F29400C2F200000021C0E90611C0E996
:1056100008118162704700000FB4054B10B503A953
:10562000044A029800F018F810BC5DF814FB000062
:10563000FD2900080000002002E008C8121F08C170
:10564000002AFAD170477047002001E001C1121F03
:10565000002AFBD1704700002DE9FF4F8DB00F46A7
:105660000546002606E025280BD0DDE90F129047FD
:105670006D1C761C28780028F5D111B03046BDE8A5
:10568000F08F0024A246A1460122EC4900E0044329
:1056900015F8013F203B02FA03F00842F7D12878C1
:1056A0002A2810D06FF02F022878A0F130010929A4
:1056B00014D80AEB8A0102EB410144F0020400EB2A
:1056C000010A6D1CF0E701CF5FEA000A03D544F43C
:1056D0000054CAF1000A44F002046D1C28782E28F8
:1056E00017D115F8010F44F004042A280ED06FF0EA
:1056F0002F022878A0F1300109290AD809EB890185
:1057000002EB410100EB01096D1CF2E757F8049B25
:105710006D1C28786C280FD006DC4C2817D0682820
:105720000DD06A2814D104E0742810D07A280FD143
:105730000DE044F400140AE044F4801401E044F461
:1057400040146978814202D104F580146D1C6D1CEF
:105750002A786E2A1FD00CDC632A31D004DC002AA0
:105760008BD0582A11D1A3E0642A68D0692A0CD1C1
:1057700065E0732A2ED004DC6F2A73D0702A04D11E
:105780009BE0752A6FD0782A6ED01046DDE90F12A3
:105790009047761C50E1C4F30250022806D003283B
:1057A00009D0042801CF09D0066045E101CFF117E7
:1057B000C0E9006140E101CF06803DE106703BE1B8
:1057C00017F8040B8DF8000000208DF80100EB465F
:1057D000012003E057F804BB4FF0FF3061074FF0A2
:1057E000000102D40DE008F10101884649450FDAB5
:1057F0008045F8DB1BF808100029F4D108E008F117
:10580000010188468142FADB1BF808100029F6D115
:10581000DDE90F23AAEB08008146214600F036F9A6
:10582000304400EB080604E0DDE90F121BF8010B21
:105830009047B8F10108F7D221464846F7E00A211F
:10584000C4F302534FF0000B0891022B04D001CF98
:10585000C117032B09D00AE0FF1D27F00707F7E85F
:10586000020108E032E01FE020E000B2C117042B83
:1058700001D140B2C117031E71F1000307DA4FF0E6
:10588000000CD0EB0C006CEB01012D2302E0230592
:1058900004D52B238DF82430012303E0E30701D046
:1058A0002023F7E7984658E00A2110E010210EE087
:1058B00010204FF0000B08900CE010214FF0000B6F
:1058C00044F004044FF00809089103E008214FF068
:1058D000000B0891C4F30253022B04D001CF002126
:1058E000032B06D006E0FF1D27F00707F7E80201AB
:1058F00003E080B2042B00D1C0B24FF000082307B0
:105900002BD5702A07D0DDF820C08CF0100C5CEA93
:105910000B0C05D00EE040238DF82430012308E065
:1059200050EA010306D030238DF824308DF825206D
:1059300002239846DDF820C08CF0080C5CEA0B0CC2
:105940000BD150EA010301D1630706D530238DF84E
:1059500024304FF00108A9F10109582A04D038A2D7
:105960000B9208AA0A920BE03AA2F9E75B46089A62
:10597000FAF71EFC0B9B9B5C0A9A521E0A9213704C
:1059800050EA0102F2D10A98ADEB000000F1200BC1
:10599000600702D524F4803401E04FF00109D945B5
:1059A00002DDA9EB0B0000E0002000EB0B014144FD
:1059B0000890AAEB010AE00306D4DDE90F23214693
:1059C000504600F063F806444FF0000908E009A9CA
:1059D00011F80900DDE90F12904709F10109761C61
:1059E000C145F4DBE0030CD5DDE90F232146504629
:1059F00000F04CF8064404E0DDE90F123020904737
:105A0000761C0899481E08900029F5DC08E00A98E1
:105A10000A990078491C0A91DDE90F129047761C1B
:105A2000BBF10001ABF1010BF1DC21465046DDE991
:105A30000F2300F019F806446D1C1BE6092801002D
:105A400030313233343536373839616263646566F4
:105A500000000000303132333435363738394142B6
:105A600043444546000000002DE9F041044600256E
:105A70001E461746880404D405E039462020B04766
:105A80006D1C641EF9D52846BDE8F0812DE9F04172
:105A9000044600251E469046C80301D5302700E085
:105AA0002027880404D505E041463846B0476D1CE0
:105AB000641EF9D52846BDE8F08100000149FCF7D5
:105AC0009DBF00000000002010B5044601E0FCF777
:105AD00095FF14F8010B04490028F8D1BDE81040E7
